{
	"data": {
		"bytecode": {
			"linkReferences": {},
			"object": "6080604052600580546001600160a01b03199081167378867bbeef44f2326bf8ddd1941a4439382ef2a717909155600680549091163317905534801561004457600080fd5b5061004e33610060565b6000805460ff60a01b191690556100b0565b600080546001600160a01b038381166001600160a01b0319831681178455604051919092169283917f8be0079c531659141344cd1fd0a4f28419497f9722a3daafe3b4186f6b6457e09190a35050565b613496806100bf6000396000f3fe60806040523480156200001157600080fd5b50600436106200009f5760003560e01c80635c975abb116200006e5780635c975abb1462000143578063715018a614620001615780638da5cb5b146200016b578063b8a6e1e4146200017d578063f2fde38b146200019457600080fd5b806305389d6714620000a457806331636cd314620000bd578063526acc63146200010657806352c8df64146200012c575b600080fd5b620000bb620000b536600462000685565b620001ab565b005b620000e9620000ce3660046200076d565b6002602052600090815260409020546001600160a01b031681565b6040516001600160a01b0390911681526020015b60405180910390f35b6200011d62000117366004620007a4565b620001be565b604051620000fd9190620007c2565b620000e96200013d3660046200076d565b62000236565b600054600160a01b900460ff166040519015158152602001620000fd565b620000bb62000269565b6000546001600160a01b0316620000e9565b620000e96200018e36600462000811565b620002d7565b620000bb620001a5366004620007a4565b62000310565b620001b933848484620003e1565b505050565b6001600160a01b0381166000908152600460209081526040918290208054835181840281018401909452808452606093928301828280156200022a57602002820191906000526020600020905b81546001600160a01b031681526001909101906020018083116200020b575b50505050509050919050565b6000600182815481106200024e576200024e6200083e565b6000918252602090912001546001600160a01b031692915050565b6000546001600160a01b03163314620002c95760405162461bcd60e51b815260206004820181905260248201527f4f776e61626c653a2063616c6c6572206973206e6f7420746865206f776e657260448201526064015b60405180910390fd5b620002d560006200059f565b565b60046020528160005260406000208181548110620002f457600080fd5b6000918252602090912001546001600160a01b03169150829050565b6000546001600160a01b031633146200036c5760405162461bcd60e51b815260206004820181905260248201527f4f776e61626c653a2063616c6c6572206973206e6f7420746865206f776e65726044820152606401620002c0565b6001600160a01b038116620003d35760405162461bcd60e51b815260206004820152602660248201527f4f776e61626c653a206e6577206f776e657220697320746865207a65726f206160448201526564647265737360d01b6064820152608401620002c0565b620003de816200059f565b50565b60006103e8604051620003f49062000604565b908152602001604051809103906000f08015801562000417573d6000803e3d6000fd5b5060055460065460405192935060009287926001600160a01b039081169288928892889216908c9082906200044c9062000612565b6200045f989796959493929190620008a4565b604051809103906000f0801580156200047c573d6000803e3d6000fd5b5060018054808201825560008281527fb10e2d527612073b26eecdfd717e6a320cf44b4afac2b0732d9fcbe2b7fa0cf690910180546001600160a01b0319166001600160a01b038516179055815492935091620004da919062000968565b600081815260026020908152604080832080546001600160a01b031916339081179091558352600390915290205490915062000518906001620005ef565b3360009081526003602090815260408083209390935560048152828220805460018101825590835291200180546001600160a01b0319166001600160a01b038516179055517fd105034e6624c3d161e06b9f1971607a9b293f6e6391629a5fc5726bee44e958906200058e908390899062000982565b60405180910390a150505050505050565b600080546001600160a01b038381166001600160a01b0319831681178455604051919092169283917f8be0079c531659141344cd1fd0a4f28419497f9722a3daafe3b4186f6b6457e09190a35050565b6000620005fd8284620009a5565b9392505050565b610e1280620009c183390190565b611c8e80620017d383390190565b634e487b7160e01b600052604160045260246000fd5b60008083601f8401126200064957600080fd5b50813567ffffffffffffffff8111156200066257600080fd5b6020830191508360208260051b85010111156200067e57600080fd5b9250929050565b6000806000604084860312156200069b57600080fd5b833567ffffffffffffffff80821115620006b457600080fd5b818601915086601f830112620006c957600080fd5b813581811115620006de57620006de62000620565b604051601f8201601f19908116603f0116810190838211818310171562000709576200070962000620565b816040528281528960208487010111156200072357600080fd5b8260208601602083013760006020848301015280975050505060208601359150808211156200075157600080fd5b50620007608682870162000636565b9497909650939450505050565b6000602082840312156200078057600080fd5b5035919050565b80356001600160a01b03811681146200079f57600080fd5b919050565b600060208284031215620007b757600080fd5b620005fd8262000787565b6020808252825182820181905260009190848201906040850190845b81811015620008055783516001600160a01b031683529284019291840191600101620007de565b50909695505050505050565b600080604083850312156200082557600080fd5b620008308362000787565b946020939093013593505050565b634e487b7160e01b600052603260045260246000fd5b6000815180845260005b818110156200087c576020818501810151868301820152016200085e565b818111156200088f576000602083870101525b50601f01601f19169290920160200192915050565b60e081526000620008b960e083018b62000854565b6001600160a01b038a811660208581019190915284830360408601528983528a92909190820160005b8b8110156200090b5782620008f78662000787565b1682529383019390830190600101620008e2565b50818a16606087015290881660808601526001600160a01b03871660a0860152925062000936915050565b6001600160a01b03831660c08301529998505050505050505050565b634e487b7160e01b600052601160045260246000fd5b6000828210156200097d576200097d62000952565b500390565b8281526040602082015260006200099d604083018462000854565b949350505050565b60008219821115620009bb57620009bb62000952565b50019056fe60806040523480156200001157600080fd5b5060405162000e1238038062000e128339810160408190526200003491620002c4565b6040518060400160405280600e81526020016d5265636569707446756e6469657360901b8152506040518060400160405280600e81526020016d7265636569707446756e6469657360901b81525081600390805190602001906200009a9291906200021e565b508051620000b09060049060208401906200021e565b505050620000cd620000c7620000e060201b60201c565b620000e4565b620000d9338262000136565b5062000342565b3390565b600580546001600160a01b038381166001600160a01b0319831681179093556040519116919082907f8be0079c531659141344cd1fd0a4f28419497f9722a3daafe3b4186f6b6457e090600090a35050565b6001600160a01b038216620001915760405162461bcd60e51b815260206004820152601f60248201527f45524332303a206d696e7420746f20746865207a65726f206164647265737300604482015260640160405180910390fd5b8060026000828254620001a59190620002de565b90915550506001600160a01b03821660009081526020819052604081208054839290620001d4908490620002de565b90915550506040518181526001600160a01b038316906000907fddf252ad1be2c89b69c2b068fc378daa952ba7f163c4a11628f55a4df523b3ef9060200160405180910390a35050565b8280546200022c9062000305565b90600052602060002090601f0160209004810192826200025057600085556200029b565b82601f106200026b57805160ff19168380011785556200029b565b828001600101855582156200029b579182015b828111156200029b5782518255916020019190600101906200027e565b50620002a9929150620002ad565b5090565b5b80821115620002a95760008155600101620002ae565b600060208284031215620002d757600080fd5b5051919050565b600082198211156200030057634e487b7160e01b600052601160045260246000fd5b500190565b600181811c908216806200031a57607f821691505b602082108114156200033c57634e487b7160e01b600052602260045260246000fd5b50919050565b610ac080620003526000396000f3fe608060405234801561001057600080fd5b50600436106100ea5760003560e01c8063715018a61161008c578063a457c2d711610066578063a457c2d7146101cd578063a9059cbb146101e0578063dd62ed3e146101f3578063f2fde38b1461022c57600080fd5b8063715018a6146101a05780638da5cb5b146101aa57806395d89b41146101c557600080fd5b806323b872dd116100c857806323b872dd14610142578063313ce56714610155578063395093511461016457806370a082311461017757600080fd5b806306fdde03146100ef578063095ea7b31461010d57806318160ddd14610130575b600080fd5b6100f761023f565b60405161010491906108fd565b60405180910390f35b61012061011b36600461096e565b6102d1565b6040519015158152602001610104565b6002545b604051908152602001610104565b610120610150366004610998565b6102e7565b60405160128152602001610104565b61012061017236600461096e565b610396565b6101346101853660046109d4565b6001600160a01b031660009081526020819052604090205490565b6101a86103d2565b005b6005546040516001600160a01b039091168152602001610104565b6100f7610438565b6101206101db36600461096e565b610447565b6101206101ee36600461096e565b6104e0565b6101346102013660046109f6565b6001600160a01b03918216600090815260016020908152604080832093909416825291909152205490565b6101a861023a3660046109d4565b6104ed565b60606003805461024e90610a29565b80601f016020809104026020016040519081016040528092919081815260200182805461027a90610a29565b80156102c75780601f1061029c576101008083540402835291602001916102c7565b820191906000526020600020905b8154815290600101906020018083116102aa57829003601f168201915b5050505050905090565b60006102de3384846105b8565b50600192915050565b60006102f48484846106dc565b6001600160a01b03841660009081526001602090815260408083203384529091529020548281101561037e5760405162461bcd60e51b815260206004820152602860248201527f45524332303a207472616e7366657220616d6f756e74206578636565647320616044820152676c6c6f77616e636560c01b60648201526084015b60405180910390fd5b61038b85338584036105b8565b506001949350505050565b3360008181526001602090815260408083206001600160a01b038716845290915281205490916102de9185906103cd908690610a64565b6105b8565b6005546001600160a01b0316331461042c5760405162461bcd60e51b815260206004820181905260248201527f4f776e61626c653a2063616c6c6572206973206e6f7420746865206f776e65726044820152606401610375565b61043660006108ab565b565b60606004805461024e90610a29565b3360009081526001602090815260408083206001600160a01b0386168452909152812054828110156104c95760405162461bcd60e51b815260206004820152602560248201527f45524332303a2064656372656173656420616c6c6f77616e63652062656c6f77604482015264207a65726f60d81b6064820152608401610375565b6104d633858584036105b8565b5060019392505050565b60006102de3384846106dc565b6005546001600160a01b031633146105475760405162461bcd60e51b815260206004820181905260248201527f4f776e61626c653a2063616c6c6572206973206e6f7420746865206f776e65726044820152606401610375565b6001600160a01b0381166105ac5760405162461bcd60e51b815260206004820152602660248201527f4f776e61626c653a206e6577206f776e657220697320746865207a65726f206160448201526564647265737360d01b6064820152608401610375565b6105b5816108ab565b50565b6001600160a01b03831661061a5760405162461bcd60e51b8152602060048201526024808201527f45524332303a20617070726f76652066726f6d20746865207a65726f206164646044820152637265737360e01b6064820152608401610375565b6001600160a01b03821661067b5760405162461bcd60e51b815260206004820152602260248201527f45524332303a20617070726f766520746f20746865207a65726f206164647265604482015261737360f01b6064820152608401610375565b6001600160a01b0383811660008181526001602090815260408083209487168084529482529182902085905590518481527f8c5be1e5ebec7d5bd14f71427d1e84f3dd0314c0f7b2291e5b200ac8c7c3b925910160405180910390a3505050565b6001600160a01b0383166107405760405162461bcd60e51b815260206004820152602560248201527f45524332303a207472616e736665722066726f6d20746865207a65726f206164604482015264647265737360d81b6064820152608401610375565b6001600160a01b0382166107a25760405162461bcd60e51b815260206004820152602360248201527f45524332303a207472616e7366657220746f20746865207a65726f206164647260448201526265737360e81b6064820152608401610375565b6001600160a01b0383166000908152602081905260409020548181101561081a5760405162461bcd60e51b815260206004820152602660248201527f45524332303a207472616e7366657220616d6f756e7420657863656564732062604482015265616c616e636560d01b6064820152608401610375565b6001600160a01b03808516600090815260208190526040808220858503905591851681529081208054849290610851908490610a64565b92505081905550826001600160a01b0316846001600160a01b03167fddf252ad1be2c89b69c2b068fc378daa952ba7f163c4a11628f55a4df523b3ef8460405161089d91815260200190565b60405180910390a350505050565b600580546001600160a01b038381166001600160a01b0319831681179093556040519116919082907f8be0079c531659141344cd1fd0a4f28419497f9722a3daafe3b4186f6b6457e090600090a35050565b600060208083528351808285015260005b8181101561092a5785810183015185820160400152820161090e565b8181111561093c576000604083870101525b50601f01601f1916929092016040019392505050565b80356001600160a01b038116811461096957600080fd5b919050565b6000806040838503121561098157600080fd5b61098a83610952565b946020939093013593505050565b6000806000606084860312156109ad57600080fd5b6109b684610952565b92506109c460208501610952565b9150604084013590509250925092565b6000602082840312156109e657600080fd5b6109ef82610952565b9392505050565b60008060408385031215610a0957600080fd5b610a1283610952565b9150610a2060208401610952565b90509250929050565b600181811c90821680610a3d57607f821691505b60208210811415610a5e57634e487b7160e01b600052602260045260246000fd5b50919050565b60008219821115610a8557634e487b7160e01b600052601160045260246000fd5b50019056fea264697066735822122005adfce7ae64768f60c8b170c22b7e16e606474a84bce396ae520c8c9f025b7564736f6c634300080a003360c060405260c86009556019600a55600a600b556203f480600c553480156200002757600080fd5b5060405162001c8e38038062001c8e8339810160408190526200004a916200033c565b6200005533620000e7565b6000805460ff60a01b191690558651620000779060089060208a019062000137565b506001600160a01b03861660805284516200009a906001906020880190620001c6565b506001600160a01b0393841660a052600580549385166001600160a01b031994851617905560078054928516928416929092179091556006805491909316911617905550620004bb915050565b600080546001600160a01b038381166001600160a01b0319831681178455604051919092169283917f8be0079c531659141344cd1fd0a4f28419497f9722a3daafe3b4186f6b6457e09190a35050565b82805462000145906200047e565b90600052602060002090601f016020900481019282620001695760008555620001b4565b82601f106200018457805160ff1916838001178555620001b4565b82800160010185558215620001b4579182015b82811115620001b457825182559160200191906001019062000197565b50620001c29291506200021e565b5090565b828054828255906000526020600020908101928215620001b4579160200282015b82811115620001b457825182546001600160a01b0319166001600160a01b03909116178255602090920191600190910190620001e7565b5b80821115620001c257600081556001016200021f565b634e487b7160e01b600052604160045260246000fd5b604051601f8201601f191681016001600160401b038111828210171562000276576200027662000235565b604052919050565b6001600160a01b03811681146200029457600080fd5b50565b8051620002a4816200027e565b919050565b600082601f830112620002bb57600080fd5b815160206001600160401b03821115620002d957620002d962000235565b8160051b620002ea8282016200024b565b92835284810182019282810190878511156200030557600080fd5b83870192505b848310156200033157825162000321816200027e565b825291830191908301906200030b565b979650505050505050565b600080600080600080600060e0888a0312156200035857600080fd5b87516001600160401b03808211156200037057600080fd5b818a0191508a601f8301126200038557600080fd5b8151818111156200039a576200039a62000235565b6020620003b0601f8301601f191682016200024b565b8281528d82848701011115620003c557600080fd5b60005b83811015620003e5578581018301518282018401528201620003c8565b83811115620003f75760008385840101525b509a50620004078c820162000297565b9950505060408a01519150808211156200042057600080fd5b506200042f8a828b01620002a9565b955050620004406060890162000297565b9350620004506080890162000297565b92506200046060a0890162000297565b91506200047060c0890162000297565b905092959891949750929550565b600181811c908216806200049357607f821691505b60208210811415620004b557634e487b7160e01b600052602260045260246000fd5b50919050565b60805160a0516117836200050b60003960008181610443015261113b0152600081816104900152818161085a0152818161092a01528181610aa701528181610f4001526110ab01526117836000f3fe608060405234801561001057600080fd5b506004361061021c5760003560e01c80638456cb5911610125578063bdca9165116100ad578063e941fa781161007c578063e941fa7814610435578063ec78e8321461043e578063f2fde38b14610465578063f851a44014610478578063fc0c546a1461048b57600080fd5b8063bdca916514610410578063d4b0de2f146102be578063def68a9c14610419578063df10b4e61461042c57600080fd5b80638da5cb5b116100f45780638da5cb5b146103c757806390321e1a146103d8578063b60f0531146103e1578063b6ac642a146103ea578063b6b55f25146103fd57600080fd5b80638456cb591461039b578063853828b6146103a357806387788782146103ab5780638cce6fca146103b457600080fd5b8063481c6a75116101a8578063704b6c0211610177578063704b6c021461036557806370897b2314610378578063715018a61461038b578063722713f71461032d57806377c7b8fc1461039357600080fd5b8063481c6a751461030257806348a0d7541461032d5780635c975abb1461033557806361d027b31461035257600080fd5b80632ad5a53f116101ef5780632ad5a53f146102be5780632cfc5f01146102d45780632e1a7d4d146102de5780633a98ef39146102f15780633f4ba83a146102fa57600080fd5b806306fdde03146102215780631959a0021461023f5780631efac1b81461029657806326465826146102ab575b600080fd5b6102296104b2565b60405161023691906114d1565b60405180910390f35b61027661024d366004611526565b600260208190526000918252604090912080546001820154928201546003909201549092919084565b604080519485526020850193909352918301526060820152608001610236565b6102a96102a436600461154f565b610540565b005b6102a96102b936600461154f565b6105f1565b6102c6606481565b604051908152602001610236565b6102c66203f48081565b6102a96102ec36600461154f565b610682565b6102c660035481565b6102a96109e2565b600754610315906001600160a01b031681565b6040516001600160a01b039091168152602001610236565b6102c6610a8f565b600054600160a01b900460ff166040519015158152602001610236565b600654610315906001600160a01b031681565b6102a9610373366004611526565b610b1f565b6102a961038636600461154f565b610bba565b6102a9610c5a565b6102c6610c90565b6102a9610cc3565b6102a9610d4a565b6102c660095481565b6103156103c236600461154f565b610da1565b6000546001600160a01b0316610315565b6102c6600a5481565b6102c660045481565b6102a96103f836600461154f565b610dcb565b6102a961040b36600461154f565b610e64565b6102c66101f481565b6102a9610427366004611526565b61107f565b6102c6600c5481565b6102c6600b5481565b6103157f000000000000000000000000000000000000000000000000000000000000000081565b6102a9610473366004611526565b6112ad565b600554610315906001600160a01b031681565b6103157f000000000000000000000000000000000000000000000000000000000000000081565b600880546104bf90611568565b80601f01602080910402602001604051908101604052809291908181526020018280546104eb90611568565b80156105385780601f1061050d57610100808354040283529160200191610538565b820191906000526020600020905b81548152906001019060200180831161051b57829003601f168201915b505050505081565b6005546001600160a01b031633146105735760405162461bcd60e51b815260040161056a906115a3565b60405180910390fd5b6203f4808111156105ec5760405162461bcd60e51b815260206004820152603d60248201527f7769746864726177466565506572696f642063616e6e6f74206265206d6f726560448201527f207468616e204d41585f57495448445241575f4645455f504552494f44000000606482015260840161056a565b600c55565b6005546001600160a01b0316331461061b5760405162461bcd60e51b815260040161056a906115a3565b606481111561067d5760405162461bcd60e51b815260206004820152602860248201527f63616c6c4665652063616e6e6f74206265206d6f7265207468616e204d41585f60448201526743414c4c5f46454560c01b606482015260840161056a565b600a55565b333b156106a15760405162461bcd60e51b815260040161056a906115c8565b3332146106c05760405162461bcd60e51b815260040161056a906115f6565b336000908152600260205260409020816107125760405162461bcd60e51b81526020600482015260136024820152724e6f7468696e6720746f20776974686472617760681b604482015260640161056a565b80548211156107635760405162461bcd60e51b815260206004820152601f60248201527f576974686472617720616d6f756e7420657863656564732062616c616e636500604482015260640161056a565b600061078360035461077d85610777610a8f565b90611348565b9061135b565b82549091506107929084611367565b82556003546107a19084611367565b60035560006107ae610a8f565b9050818110156107f95760006107c48383611367565b905060006107d0610a8f565b905060006107de8285611367565b9050828110156107f5576107f28482611373565b94505b5050505b600c54600184015461080a91611373565b4210156108d657600061082e61271061077d600b548661134890919063ffffffff16565b60065460405163a9059cbb60e01b81526001600160a01b039182166004820152602481018390529192507f0000000000000000000000000000000000000000000000000000000000000000169063a9059cbb906044016020604051808303816000875af11580156108a3573d6000803e3d6000fd5b505050506040513d601f19601f820116820180604052508101906108c7919061162d565b506108d28382611367565b9250505b825415610900576108f660035461077d6108ee610a8f565b865490611348565b6002840155610908565b600060028401555b42600384015560405163a9059cbb60e01b8152336004820152602481018390527f00000000000000000000000000000000000000000000000000000000000000006001600160a01b03169063a9059cbb906044016020604051808303816000875af115801561097b573d6000803e3d6000fd5b505050506040513d601f19601f8201168201806040525081019061099f919061162d565b50604080518381526020810186905233917ff279e6a1f5e320cca91135676d9cb6e44ca8a08c0b88342bcdb1144f6511b56891015b60405180910390a250505050565b6005546001600160a01b03163314610a0c5760405162461bcd60e51b815260040161056a906115a3565b600054600160a01b900460ff16610a5c5760405162461bcd60e51b815260206004820152601460248201527314185d5cd8589b194e881b9bdd081c185d5cd95960621b604482015260640161056a565b610a6461137f565b6040517f7805862f689e2f13df9f062ff482ad3ad112aca9e0847911ed832e158c525b3390600090a1565b6040516370a0823160e01b81523060048201526000907f00000000000000000000000000000000000000000000000000000000000000006001600160a01b0316906370a0823190602401602060405180830381865afa158015610af6573d6000803e3d6000fd5b505050506040513d601f19601f82011682018060405250810190610b1a919061164f565b905090565b6000546001600160a01b03163314610b495760405162461bcd60e51b815260040161056a90611668565b6001600160a01b038116610b985760405162461bcd60e51b815260206004820152601660248201527543616e6e6f74206265207a65726f206164647265737360501b604482015260640161056a565b600580546001600160a01b0319166001600160a01b0392909216919091179055565b6005546001600160a01b03163314610be45760405162461bcd60e51b815260040161056a906115a3565b6101f4811115610c555760405162461bcd60e51b815260206004820152603660248201527f706572666f726d616e63654665652063616e6e6f74206265206d6f7265207468604482015275616e204d41585f504552464f524d414e43455f46454560501b606482015260840161056a565b600955565b6000546001600160a01b03163314610c845760405162461bcd60e51b815260040161056a90611668565b610c8e600061141c565b565b6000600354600014610cb657610b1a60035461077d670de0b6b3a7640000610777610a8f565b50670de0b6b3a764000090565b6005546001600160a01b03163314610ced5760405162461bcd60e51b815260040161056a906115a3565b600054600160a01b900460ff1615610d175760405162461bcd60e51b815260040161056a9061169d565b610d1f61146c565b6040517f6985a02210a168e66602d3235cb6db0e70f92b3ba4d376a33c0f3d9434bff62590600090a1565b333b15610d695760405162461bcd60e51b815260040161056a906115c8565b333214610d885760405162461bcd60e51b815260040161056a906115f6565b33600090815260026020526040902054610c8e90610682565b60018181548110610db157600080fd5b6000918252602090912001546001600160a01b0316905081565b6005546001600160a01b03163314610df55760405162461bcd60e51b815260040161056a906115a3565b6064811115610e5f5760405162461bcd60e51b815260206004820152603060248201527f77697468647261774665652063616e6e6f74206265206d6f7265207468616e2060448201526f4d41585f57495448445241575f46454560801b606482015260840161056a565b600b55565b600054600160a01b900460ff1615610e8e5760405162461bcd60e51b815260040161056a9061169d565b333b15610ead5760405162461bcd60e51b815260040161056a906115c8565b333214610ecc5760405162461bcd60e51b815260040161056a906115f6565b60008111610f115760405162461bcd60e51b8152602060048201526012602482015271139bdd1a1a5b99c81d1bc819195c1bdcda5d60721b604482015260640161056a565b6000610f1b610a8f565b6040516323b872dd60e01b8152336004820152306024820152604481018490529091507f00000000000000000000000000000000000000000000000000000000000000006001600160a01b0316906323b872dd906064016020604051808303816000875af1158015610f91573d6000803e3d6000fd5b505050506040513d601f19601f82011682018060405250810190610fb5919061162d565b506000600354600014610fe257610fdb8261077d6003548661134890919063ffffffff16565b9050610fe5565b50815b33600090815260026020526040902080546110009083611373565b81554260018201556003546110159083611373565b60038190556110319061077d611029610a8f565b845490611348565b6002820155426003820181905560408051868152602081018590529081019190915233907f36af321ec8d3c75236829c5317affd40ddb308863a1236d2d277a4025cccee1e906060016109d4565b6005546001600160a01b031633146110a95760405162461bcd60e51b815260040161056a906115a3565b7f00000000000000000000000000000000000000000000000000000000000000006001600160a01b0316816001600160a01b031614156111395760405162461bcd60e51b815260206004820152602560248201527f546f6b656e2063616e6e6f742062652073616d65206173206465706f736974206044820152643a37b5b2b760d91b606482015260840161056a565b7f00000000000000000000000000000000000000000000000000000000000000006001600160a01b0316816001600160a01b031614156111c95760405162461bcd60e51b815260206004820152602560248201527f546f6b656e2063616e6e6f742062652073616d652061732072656365697074206044820152643a37b5b2b760d91b606482015260840161056a565b6040516370a0823160e01b81523060048201526000906001600160a01b038316906370a0823190602401602060405180830381865afa158015611210573d6000803e3d6000fd5b505050506040513d601f19601f82011682018060405250810190611234919061164f565b60405163a9059cbb60e01b8152336004820152602481018290529091506001600160a01b0383169063a9059cbb906044016020604051808303816000875af1158015611284573d6000803e3d6000fd5b505050506040513d601f19601f820116820180604052508101906112a8919061162d565b505050565b6000546001600160a01b031633146112d75760405162461bcd60e51b815260040161056a90611668565b6001600160a01b03811661133c5760405162461bcd60e51b815260206004820152602660248201527f4f776e61626c653a206e6577206f776e657220697320746865207a65726f206160448201526564647265737360d01b606482015260840161056a565b6113458161141c565b50565b600061135482846116dd565b9392505050565b600061135482846116fc565b6000611354828461171e565b60006113548284611735565b600054600160a01b900460ff166113cf5760405162461bcd60e51b815260206004820152601460248201527314185d5cd8589b194e881b9bdd081c185d5cd95960621b604482015260640161056a565b6000805460ff60a01b191690557f5db9ee0a495bf2e6ff9c91a7834c1ba4fdd244a5e8aa4e537bd38aeae4b073aa335b6040516001600160a01b03909116815260200160405180910390a1565b600080546001600160a01b038381166001600160a01b0319831681178455604051919092169283917f8be0079c531659141344cd1fd0a4f28419497f9722a3daafe3b4186f6b6457e09190a35050565b600054600160a01b900460ff16156114965760405162461bcd60e51b815260040161056a9061169d565b6000805460ff60a01b1916600160a01b1790557f62e78cea01bee320cd4e420270b5ea74000d11b0c9f74754ebdbfc544b05a2586113ff3390565b600060208083528351808285015260005b818110156114fe578581018301518582016040015282016114e2565b81811115611510576000604083870101525b50601f01601f1916929092016040019392505050565b60006020828403121561153857600080fd5b81356001600160a01b038116811461135457600080fd5b60006020828403121561156157600080fd5b5035919050565b600181811c9082168061157c57607f821691505b6020821081141561159d57634e487b7160e01b600052602260045260246000fd5b50919050565b6020808252600b908201526a61646d696e3a207775743f60a81b604082015260600190565b60208082526014908201527318dbdb9d1c9858dd081b9bdd08185b1b1bddd95960621b604082015260600190565b6020808252601a908201527f70726f787920636f6e7472616374206e6f7420616c6c6f776564000000000000604082015260600190565b60006020828403121561163f57600080fd5b8151801515811461135457600080fd5b60006020828403121561166157600080fd5b5051919050565b6020808252818101527f4f776e61626c653a2063616c6c6572206973206e6f7420746865206f776e6572604082015260600190565b60208082526010908201526f14185d5cd8589b194e881c185d5cd95960821b604082015260600190565b634e487b7160e01b600052601160045260246000fd5b60008160001904831182151516156116f7576116f76116c7565b500290565b60008261171957634e487b7160e01b600052601260045260246000fd5b500490565b600082821015611730576117306116c7565b500390565b60008219821115611748576117486116c7565b50019056fea2646970667358221220997cc5e8feb9b647de31d5c42f8832541590c50cc2c30f9858c58a102d3f655064736f6c634300080a0033a2646970667358221220b3736af403d0034d704581406c965750c762fc259e7be8fea5da3acc58209b3d64736f6c634300080a0033",
			"opcodes": "PUSH1 0x80 PUSH1 0x40 MSTORE PUSH1 0x5 DUP1 SLOAD PUSH1 0x1 PUSH1 0x1 PUSH1 0xA0 SHL SUB NOT SWAP1 DUP2 AND PUSH20 0x78867BBEEF44F2326BF8DDD1941A4439382EF2A7 OR SWAP1 SWAP2 SSTORE PUSH1 0x6 DUP1 SLOAD SWAP1 SWAP2 AND CALLER OR SWAP1 SSTORE CALLVALUE DUP1 ISZERO PUSH2 0x44 JUMPI PUSH1 0x0 DUP1 REVERT JUMPDEST POP PUSH2 0x4E CALLER PUSH2 0x60 JUMP JUMPDEST PUSH1 0x0 DUP1 SLOAD PUSH1 0xFF PUSH1 0xA0 SHL NOT AND SWAP1 SSTORE PUSH2 0xB0 JUMP JUMPDEST PUSH1 0x0 DUP1 SLOAD PUSH1 0x1 PUSH1 0x1 PUSH1 0xA0 SHL SUB DUP4 DUP2 AND PUSH1 0x1 PUSH1 0x1 PUSH1 0xA0 SHL SUB NOT DUP4 AND DUP2 OR DUP5 SSTORE PUSH1 0x40 MLOAD SWAP2 SWAP1 SWAP3 AND SWAP3 DUP4 SWAP2 PUSH32 0x8BE0079C531659141344CD1FD0A4F28419497F9722A3DAAFE3B4186F6B6457E0 SWAP2 SWAP1 LOG3 POP POP JUMP JUMPDEST PUSH2 0x3496 DUP1 PUSH2 0xBF PUSH1 0x0 CODECOPY PUSH1 0x0 RETURN INVALID PUSH1 0x80 PUSH1 0x40 MSTORE CALLVALUE DUP1 ISZERO PUSH3 0x11 JUMPI PUSH1 0x0 DUP1 REVERT JUMPDEST POP PUSH1 0x4 CALLDATASIZE LT PUSH3 0x9F JUMPI PUSH1 0x0 CALLDATALOAD PUSH1 0xE0 SHR DUP1 PUSH4 0x5C975ABB GT PUSH3 0x6E JUMPI DUP1 PUSH4 0x5C975ABB EQ PUSH3 0x143 JUMPI DUP1 PUSH4 0x715018A6 EQ PUSH3 0x161 JUMPI DUP1 PUSH4 0x8DA5CB5B EQ PUSH3 0x16B JUMPI DUP1 PUSH4 0xB8A6E1E4 EQ PUSH3 0x17D JUMPI DUP1 PUSH4 0xF2FDE38B EQ PUSH3 0x194 JUMPI PUSH1 0x0 DUP1 REVERT JUMPDEST DUP1 PUSH4 0x5389D67 EQ PUSH3 0xA4 JUMPI DUP1 PUSH4 0x31636CD3 EQ PUSH3 0xBD JUMPI DUP1 PUSH4 0x526ACC63 EQ PUSH3 0x106 JUMPI DUP1 PUSH4 0x52C8DF64 EQ PUSH3 0x12C JUMPI JUMPDEST PUSH1 0x0 DUP1 REVERT JUMPDEST PUSH3 0xBB PUSH3 0xB5 CALLDATASIZE PUSH1 0x4 PUSH3 0x685 JUMP JUMPDEST PUSH3 0x1AB JUMP JUMPDEST STOP JUMPDEST PUSH3 0xE9 PUSH3 0xCE CALLDATASIZE PUSH1 0x4 PUSH3 0x76D JUMP JUMPDEST PUSH1 0x2 PUSH1 0x20 MSTORE PUSH1 0x0 SWAP1 DUP2 MSTORE PUSH1 0x40 SWAP1 KECCAK256 SLOAD PUSH1 0x1 PUSH1 0x1 PUSH1 0xA0 SHL SUB AND DUP2 JUMP JUMPDEST PUSH1 0x40 MLOAD PUSH1 0x1 PUSH1 0x1 PUSH1 0xA0 SHL SUB SWAP1 SWAP2 AND DUP2 MSTORE PUSH1 0x20 ADD JUMPDEST PUSH1 0x40 MLOAD DUP1 SWAP2 SUB SWAP1 RETURN JUMPDEST PUSH3 0x11D PUSH3 0x117 CALLDATASIZE PUSH1 0x4 PUSH3 0x7A4 JUMP JUMPDEST PUSH3 0x1BE JUMP JUMPDEST PUSH1 0x40 MLOAD PUSH3 0xFD SWAP2 SWAP1 PUSH3 0x7C2 JUMP JUMPDEST PUSH3 0xE9 PUSH3 0x13D CALLDATASIZE PUSH1 0x4 PUSH3 0x76D JUMP JUMPDEST PUSH3 0x236 JUMP JUMPDEST PUSH1 0x0 SLOAD PUSH1 0x1 PUSH1 0xA0 SHL SWAP1 DIV PUSH1 0xFF AND PUSH1 0x40 MLOAD SWAP1 ISZERO ISZERO DUP2 MSTORE PUSH1 0x20 ADD PUSH3 0xFD JUMP JUMPDEST PUSH3 0xBB PUSH3 0x269 JUMP JUMPDEST PUSH1 0x0 SLOAD PUSH1 0x1 PUSH1 0x1 PUSH1 0xA0 SHL SUB AND PUSH3 0xE9 JUMP JUMPDEST PUSH3 0xE9 PUSH3 0x18E CALLDATASIZE PUSH1 0x4 PUSH3 0x811 JUMP JUMPDEST PUSH3 0x2D7 JUMP JUMPDEST PUSH3 0xBB PUSH3 0x1A5 CALLDATASIZE PUSH1 0x4 PUSH3 0x7A4 JUMP JUMPDEST PUSH3 0x310 JUMP JUMPDEST PUSH3 0x1B9 CALLER DUP5 DUP5 DUP5 PUSH3 0x3E1 JUMP JUMPDEST POP POP POP JUMP JUMPDEST PUSH1 0x1 PUSH1 0x1 PUSH1 0xA0 SHL SUB DUP2 AND PUSH1 0x0 SWAP1 DUP2 MSTORE PUSH1 0x4 PUSH1 0x20 SWAP1 DUP2 MSTORE PUSH1 0x40 SWAP2 DUP3 SWAP1 KECCAK256 DUP1 SLOAD DUP4 MLOAD DUP2 DUP5 MUL DUP2 ADD DUP5 ADD SWAP1 SWAP5 MSTORE DUP1 DUP5 MSTORE PUSH1 0x60 SWAP4 SWAP3 DUP4 ADD DUP3 DUP3 DUP1 ISZERO PUSH3 0x22A JUMPI PUSH1 0x20 MUL DUP3 ADD SWAP2 SWAP1 PUSH1 0x0 MSTORE PUSH1 0x20 PUSH1 0x0 KECCAK256 SWAP1 JUMPDEST DUP2 SLOAD PUSH1 0x1 PUSH1 0x1 PUSH1 0xA0 SHL SUB AND DUP2 MSTORE PUSH1 0x1 SWAP1 SWAP2 ADD SWAP1 PUSH1 0x20 ADD DUP1 DUP4 GT PUSH3 0x20B JUMPI JUMPDEST POP POP POP POP POP SWAP1 POP SWAP2 SWAP1 POP JUMP JUMPDEST PUSH1 0x0 PUSH1 0x1 DUP3 DUP2 SLOAD DUP2 LT PUSH3 0x24E JUMPI PUSH3 0x24E PUSH3 0x83E JUMP JUMPDEST PUSH1 0x0 SWAP2 DUP3 MSTORE PUSH1 0x20 SWAP1 SWAP2 KECCAK256 ADD SLOAD PUSH1 0x1 PUSH1 0x1 PUSH1 0xA0 SHL SUB AND SWAP3 SWAP2 POP POP JUMP JUMPDEST PUSH1 0x0 SLOAD PUSH1 0x1 PUSH1 0x1 PUSH1 0xA0 SHL SUB AND CALLER EQ PUSH3 0x2C9 JUMPI PUSH1 0x40 MLOAD PUSH3 0x461BCD PUSH1 0xE5 SHL DUP2 MSTORE PUSH1 0x20 PUSH1 0x4 DUP3 ADD DUP2 SWAP1 MSTORE PUSH1 0x24 DUP3 ADD MSTORE PUSH32 0x4F776E61626C653A2063616C6C6572206973206E6F7420746865206F776E6572 PUSH1 0x44 DUP3 ADD MSTORE PUSH1 0x64 ADD JUMPDEST PUSH1 0x40 MLOAD DUP1 SWAP2 SUB SWAP1 REVERT JUMPDEST PUSH3 0x2D5 PUSH1 0x0 PUSH3 0x59F JUMP JUMPDEST JUMP JUMPDEST PUSH1 0x4 PUSH1 0x20 MSTORE DUP2 PUSH1 0x0 MSTORE PUSH1 0x40 PUSH1 0x0 KECCAK256 DUP2 DUP2 SLOAD DUP2 LT PUSH3 0x2F4 JUMPI PUSH1 0x0 DUP1 REVERT JUMPDEST PUSH1 0x0 SWAP2 DUP3 MSTORE PUSH1 0x20 SWAP1 SWAP2 KECCAK256 ADD SLOAD PUSH1 0x1 PUSH1 0x1 PUSH1 0xA0 SHL SUB AND SWAP2 POP DUP3 SWAP1 POP JUMP JUMPDEST PUSH1 0x0 SLOAD PUSH1 0x1 PUSH1 0x1 PUSH1 0xA0 SHL SUB AND CALLER EQ PUSH3 0x36C JUMPI PUSH1 0x40 MLOAD PUSH3 0x461BCD PUSH1 0xE5 SHL DUP2 MSTORE PUSH1 0x20 PUSH1 0x4 DUP3 ADD DUP2 SWAP1 MSTORE PUSH1 0x24 DUP3 ADD MSTORE PUSH32 0x4F776E61626C653A2063616C6C6572206973206E6F7420746865206F776E6572 PUSH1 0x44 DUP3 ADD MSTORE PUSH1 0x64 ADD PUSH3 0x2C0 JUMP JUMPDEST PUSH1 0x1 PUSH1 0x1 PUSH1 0xA0 SHL SUB DUP2 AND PUSH3 0x3D3 JUMPI PUSH1 0x40 MLOAD PUSH3 0x461BCD PUSH1 0xE5 SHL DUP2 MSTORE PUSH1 0x20 PUSH1 0x4 DUP3 ADD MSTORE PUSH1 0x26 PUSH1 0x24 DUP3 ADD MSTORE PUSH32 0x4F776E61626C653A206E6577206F776E657220697320746865207A65726F2061 PUSH1 0x44 DUP3 ADD MSTORE PUSH6 0x646472657373 PUSH1 0xD0 SHL PUSH1 0x64 DUP3 ADD MSTORE PUSH1 0x84 ADD PUSH3 0x2C0 JUMP JUMPDEST PUSH3 0x3DE DUP2 PUSH3 0x59F JUMP JUMPDEST POP JUMP JUMPDEST PUSH1 0x0 PUSH2 0x3E8 PUSH1 0x40 MLOAD PUSH3 0x3F4 SWAP1 PUSH3 0x604 JUMP JUMPDEST SWAP1 DUP2 MSTORE PUSH1 0x20 ADD PUSH1 0x40 MLOAD DUP1 SWAP2 SUB SWAP1 PUSH1 0x0 CREATE DUP1 ISZERO DUP1 ISZERO PUSH3 0x417 JUMPI RETURNDATASIZE PUSH1 0x0 DUP1 RETURNDATACOPY RETURNDATASIZE PUSH1 0x0 REVERT JUMPDEST POP PUSH1 0x5 SLOAD PUSH1 0x6 SLOAD PUSH1 0x40 MLOAD SWAP3 SWAP4 POP PUSH1 0x0 SWAP3 DUP8 SWAP3 PUSH1 0x1 PUSH1 0x1 PUSH1 0xA0 SHL SUB SWAP1 DUP2 AND SWAP3 DUP9 SWAP3 DUP9 SWAP3 DUP9 SWAP3 AND SWAP1 DUP13 SWAP1 DUP3 SWAP1 PUSH3 0x44C SWAP1 PUSH3 0x612 JUMP JUMPDEST PUSH3 0x45F SWAP9 SWAP8 SWAP7 SWAP6 SWAP5 SWAP4 SWAP3 SWAP2 SWAP1 PUSH3 0x8A4 JUMP JUMPDEST PUSH1 0x40 MLOAD DUP1 SWAP2 SUB SWAP1 PUSH1 0x0 CREATE DUP1 ISZERO DUP1 ISZERO PUSH3 0x47C JUMPI RETURNDATASIZE PUSH1 0x0 DUP1 RETURNDATACOPY RETURNDATASIZE PUSH1 0x0 REVERT JUMPDEST POP PUSH1 0x1 DUP1 SLOAD DUP1 DUP3 ADD DUP3 SSTORE PUSH1 0x0 DUP3 DUP2 MSTORE PUSH32 0xB10E2D527612073B26EECDFD717E6A320CF44B4AFAC2B0732D9FCBE2B7FA0CF6 SWAP1 SWAP2 ADD DUP1 SLOAD PUSH1 0x1 PUSH1 0x1 PUSH1 0xA0 SHL SUB NOT AND PUSH1 0x1 PUSH1 0x1 PUSH1 0xA0 SHL SUB DUP6 AND OR SWAP1 SSTORE DUP2 SLOAD SWAP3 SWAP4 POP SWAP2 PUSH3 0x4DA SWAP2 SWAP1 PUSH3 0x968 JUMP JUMPDEST PUSH1 0x0 DUP2 DUP2 MSTORE PUSH1 0x2 PUSH1 0x20 SWAP1 DUP2 MSTORE PUSH1 0x40 DUP1 DUP4 KECCAK256 DUP1 SLOAD PUSH1 0x1 PUSH1 0x1 PUSH1 0xA0 SHL SUB NOT AND CALLER SWAP1 DUP2 OR SWAP1 SWAP2 SSTORE DUP4 MSTORE PUSH1 0x3 SWAP1 SWAP2 MSTORE SWAP1 KECCAK256 SLOAD SWAP1 SWAP2 POP PUSH3 0x518 SWAP1 PUSH1 0x1 PUSH3 0x5EF JUMP JUMPDEST CALLER PUSH1 0x0 SWAP1 DUP2 MSTORE PUSH1 0x3 PUSH1 0x20 SWAP1 DUP2 MSTORE PUSH1 0x40 DUP1 DUP4 KECCAK256 SWAP4 SWAP1 SWAP4 SSTORE PUSH1 0x4 DUP2 MSTORE DUP3 DUP3 KECCAK256 DUP1 SLOAD PUSH1 0x1 DUP2 ADD DUP3 SSTORE SWAP1 DUP4 MSTORE SWAP2 KECCAK256 ADD DUP1 SLOAD PUSH1 0x1 PUSH1 0x1 PUSH1 0xA0 SHL SUB NOT AND PUSH1 0x1 PUSH1 0x1 PUSH1 0xA0 SHL SUB DUP6 AND OR SWAP1 SSTORE MLOAD PUSH32 0xD105034E6624C3D161E06B9F1971607A9B293F6E6391629A5FC5726BEE44E958 SWAP1 PUSH3 0x58E SWAP1 DUP4 SWAP1 DUP10 SWAP1 PUSH3 0x982 JUMP JUMPDEST PUSH1 0x40 MLOAD DUP1 SWAP2 SUB SWAP1 LOG1 POP POP POP POP POP POP POP JUMP JUMPDEST PUSH1 0x0 DUP1 SLOAD PUSH1 0x1 PUSH1 0x1 PUSH1 0xA0 SHL SUB DUP4 DUP2 AND PUSH1 0x1 PUSH1 0x1 PUSH1 0xA0 SHL SUB NOT DUP4 AND DUP2 OR DUP5 SSTORE PUSH1 0x40 MLOAD SWAP2 SWAP1 SWAP3 AND SWAP3 DUP4 SWAP2 PUSH32 0x8BE0079C531659141344CD1FD0A4F28419497F9722A3DAAFE3B4186F6B6457E0 SWAP2 SWAP1 LOG3 POP POP JUMP JUMPDEST PUSH1 0x0 PUSH3 0x5FD DUP3 DUP5 PUSH3 0x9A5 JUMP JUMPDEST SWAP4 SWAP3 POP POP POP JUMP JUMPDEST PUSH2 0xE12 DUP1 PUSH3 0x9C1 DUP4 CODECOPY ADD SWAP1 JUMP JUMPDEST PUSH2 0x1C8E DUP1 PUSH3 0x17D3 DUP4 CODECOPY ADD SWAP1 JUMP JUMPDEST PUSH4 0x4E487B71 PUSH1 0xE0 SHL PUSH1 0x0 MSTORE PUSH1 0x41 PUSH1 0x4 MSTORE PUSH1 0x24 PUSH1 0x0 REVERT JUMPDEST PUSH1 0x0 DUP1 DUP4 PUSH1 0x1F DUP5 ADD SLT PUSH3 0x649 JUMPI PUSH1 0x0 DUP1 REVERT JUMPDEST POP DUP2 CALLDATALOAD PUSH8 0xFFFFFFFFFFFFFFFF DUP2 GT ISZERO PUSH3 0x662 JUMPI PUSH1 0x0 DUP1 REVERT JUMPDEST PUSH1 0x20 DUP4 ADD SWAP2 POP DUP4 PUSH1 0x20 DUP3 PUSH1 0x5 SHL DUP6 ADD ADD GT ISZERO PUSH3 0x67E JUMPI PUSH1 0x0 DUP1 REVERT JUMPDEST SWAP3 POP SWAP3 SWAP1 POP JUMP JUMPDEST PUSH1 0x0 DUP1 PUSH1 0x0 PUSH1 0x40 DUP5 DUP7 SUB SLT ISZERO PUSH3 0x69B JUMPI PUSH1 0x0 DUP1 REVERT JUMPDEST DUP4 CALLDATALOAD PUSH8 0xFFFFFFFFFFFFFFFF DUP1 DUP3 GT ISZERO PUSH3 0x6B4 JUMPI PUSH1 0x0 DUP1 REVERT JUMPDEST DUP2 DUP7 ADD SWAP2 POP DUP7 PUSH1 0x1F DUP4 ADD SLT PUSH3 0x6C9 JUMPI PUSH1 0x0 DUP1 REVERT JUMPDEST DUP2 CALLDATALOAD DUP2 DUP2 GT ISZERO PUSH3 0x6DE JUMPI PUSH3 0x6DE PUSH3 0x620 JUMP JUMPDEST PUSH1 0x40 MLOAD PUSH1 0x1F DUP3 ADD PUSH1 0x1F NOT SWAP1 DUP2 AND PUSH1 0x3F ADD AND DUP2 ADD SWAP1 DUP4 DUP3 GT DUP2 DUP4 LT OR ISZERO PUSH3 0x709 JUMPI PUSH3 0x709 PUSH3 0x620 JUMP JUMPDEST DUP2 PUSH1 0x40 MSTORE DUP3 DUP2 MSTORE DUP10 PUSH1 0x20 DUP5 DUP8 ADD ADD GT ISZERO PUSH3 0x723 JUMPI PUSH1 0x0 DUP1 REVERT JUMPDEST DUP3 PUSH1 0x20 DUP7 ADD PUSH1 0x20 DUP4 ADD CALLDATACOPY PUSH1 0x0 PUSH1 0x20 DUP5 DUP4 ADD ADD MSTORE DUP1 SWAP8 POP POP POP POP PUSH1 0x20 DUP7 ADD CALLDATALOAD SWAP2 POP DUP1 DUP3 GT ISZERO PUSH3 0x751 JUMPI PUSH1 0x0 DUP1 REVERT JUMPDEST POP PUSH3 0x760 DUP7 DUP3 DUP8 ADD PUSH3 0x636 JUMP JUMPDEST SWAP5 SWAP8 SWAP1 SWAP7 POP SWAP4 SWAP5 POP POP POP POP JUMP JUMPDEST PUSH1 0x0 PUSH1 0x20 DUP3 DUP5 SUB SLT ISZERO PUSH3 0x780 JUMPI PUSH1 0x0 DUP1 REVERT JUMPDEST POP CALLDATALOAD SWAP2 SWAP1 POP JUMP JUMPDEST DUP1 CALLDATALOAD PUSH1 0x1 PUSH1 0x1 PUSH1 0xA0 SHL SUB DUP2 AND DUP2 EQ PUSH3 0x79F JUMPI PUSH1 0x0 DUP1 REVERT JUMPDEST SWAP2 SWAP1 POP JUMP JUMPDEST PUSH1 0x0 PUSH1 0x20 DUP3 DUP5 SUB SLT ISZERO PUSH3 0x7B7 JUMPI PUSH1 0x0 DUP1 REVERT JUMPDEST PUSH3 0x5FD DUP3 PUSH3 0x787 JUMP JUMPDEST PUSH1 0x20 DUP1 DUP3 MSTORE DUP3 MLOAD DUP3 DUP3 ADD DUP2 SWAP1 MSTORE PUSH1 0x0 SWAP2 SWAP1 DUP5 DUP3 ADD SWAP1 PUSH1 0x40 DUP6 ADD SWAP1 DUP5 JUMPDEST DUP2 DUP2 LT ISZERO PUSH3 0x805 JUMPI DUP4 MLOAD PUSH1 0x1 PUSH1 0x1 PUSH1 0xA0 SHL SUB AND DUP4 MSTORE SWAP3 DUP5 ADD SWAP3 SWAP2 DUP5 ADD SWAP2 PUSH1 0x1 ADD PUSH3 0x7DE JUMP JUMPDEST POP SWAP1 SWAP7 SWAP6 POP POP POP POP POP POP JUMP JUMPDEST PUSH1 0x0 DUP1 PUSH1 0x40 DUP4 DUP6 SUB SLT ISZERO PUSH3 0x825 JUMPI PUSH1 0x0 DUP1 REVERT JUMPDEST PUSH3 0x830 DUP4 PUSH3 0x787 JUMP JUMPDEST SWAP5 PUSH1 0x20 SWAP4 SWAP1 SWAP4 ADD CALLDATALOAD SWAP4 POP POP POP JUMP JUMPDEST PUSH4 0x4E487B71 PUSH1 0xE0 SHL PUSH1 0x0 MSTORE PUSH1 0x32 PUSH1 0x4 MSTORE PUSH1 0x24 PUSH1 0x0 REVERT JUMPDEST PUSH1 0x0 DUP2 MLOAD DUP1 DUP5 MSTORE PUSH1 0x0 JUMPDEST DUP2 DUP2 LT ISZERO PUSH3 0x87C JUMPI PUSH1 0x20 DUP2 DUP6 ADD DUP2 ADD MLOAD DUP7 DUP4 ADD DUP3 ADD MSTORE ADD PUSH3 0x85E JUMP JUMPDEST DUP2 DUP2 GT ISZERO PUSH3 0x88F JUMPI PUSH1 0x0 PUSH1 0x20 DUP4 DUP8 ADD ADD MSTORE JUMPDEST POP PUSH1 0x1F ADD PUSH1 0x1F NOT AND SWAP3 SWAP1 SWAP3 ADD PUSH1 0x20 ADD SWAP3 SWAP2 POP POP JUMP JUMPDEST PUSH1 0xE0 DUP2 MSTORE PUSH1 0x0 PUSH3 0x8B9 PUSH1 0xE0 DUP4 ADD DUP12 PUSH3 0x854 JUMP JUMPDEST PUSH1 0x1 PUSH1 0x1 PUSH1 0xA0 SHL SUB DUP11 DUP2 AND PUSH1 0x20 DUP6 DUP2 ADD SWAP2 SWAP1 SWAP2 MSTORE DUP5 DUP4 SUB PUSH1 0x40 DUP7 ADD MSTORE DUP10 DUP4 MSTORE DUP11 SWAP3 SWAP1 SWAP2 SWAP1 DUP3 ADD PUSH1 0x0 JUMPDEST DUP12 DUP2 LT ISZERO PUSH3 0x90B JUMPI DUP3 PUSH3 0x8F7 DUP7 PUSH3 0x787 JUMP JUMPDEST AND DUP3 MSTORE SWAP4 DUP4 ADD SWAP4 SWAP1 DUP4 ADD SWAP1 PUSH1 0x1 ADD PUSH3 0x8E2 JUMP JUMPDEST POP DUP2 DUP11 AND PUSH1 0x60 DUP8 ADD MSTORE SWAP1 DUP9 AND PUSH1 0x80 DUP7 ADD MSTORE PUSH1 0x1 PUSH1 0x1 PUSH1 0xA0 SHL SUB DUP8 AND PUSH1 0xA0 DUP7 ADD MSTORE SWAP3 POP PUSH3 0x936 SWAP2 POP POP JUMP JUMPDEST PUSH1 0x1 PUSH1 0x1 PUSH1 0xA0 SHL SUB DUP4 AND PUSH1 0xC0 DUP4 ADD MSTORE SWAP10 SWAP9 POP POP POP POP POP POP POP POP POP JUMP JUMPDEST PUSH4 0x4E487B71 PUSH1 0xE0 SHL PUSH1 0x0 MSTORE PUSH1 0x11 PUSH1 0x4 MSTORE PUSH1 0x24 PUSH1 0x0 REVERT JUMPDEST PUSH1 0x0 DUP3 DUP3 LT ISZERO PUSH3 0x97D JUMPI PUSH3 0x97D PUSH3 0x952 JUMP JUMPDEST POP SUB SWAP1 JUMP JUMPDEST DUP3 DUP2 MSTORE PUSH1 0x40 PUSH1 0x20 DUP3 ADD MSTORE PUSH1 0x0 PUSH3 0x99D PUSH1 0x40 DUP4 ADD DUP5 PUSH3 0x854 JUMP JUMPDEST SWAP5 SWAP4 POP POP POP POP JUMP JUMPDEST PUSH1 0x0 DUP3 NOT DUP3 GT ISZERO PUSH3 0x9BB JUMPI PUSH3 0x9BB PUSH3 0x952 JUMP JUMPDEST POP ADD SWAP1 JUMP INVALID PUSH1 0x80 PUSH1 0x40 MSTORE CALLVALUE DUP1 ISZERO PUSH3 0x11 JUMPI PUSH1 0x0 DUP1 REVERT JUMPDEST POP PUSH1 0x40 MLOAD PUSH3 0xE12 CODESIZE SUB DUP1 PUSH3 0xE12 DUP4 CODECOPY DUP2 ADD PUSH1 0x40 DUP2 SWAP1 MSTORE PUSH3 0x34 SWAP2 PUSH3 0x2C4 JUMP JUMPDEST PUSH1 0x40 MLOAD DUP1 PUSH1 0x40 ADD PUSH1 0x40 MSTORE DUP1 PUSH1 0xE DUP2 MSTORE PUSH1 0x20 ADD PUSH14 0x5265636569707446756E64696573 PUSH1 0x90 SHL DUP2 MSTORE POP PUSH1 0x40 MLOAD DUP1 PUSH1 0x40 ADD PUSH1 0x40 MSTORE DUP1 PUSH1 0xE DUP2 MSTORE PUSH1 0x20 ADD PUSH14 0x7265636569707446756E64696573 PUSH1 0x90 SHL DUP2 MSTORE POP DUP2 PUSH1 0x3 SWAP1 DUP1 MLOAD SWAP1 PUSH1 0x20 ADD SWAP1 PUSH3 0x9A SWAP3 SWAP2 SWAP1 PUSH3 0x21E JUMP JUMPDEST POP DUP1 MLOAD PUSH3 0xB0 SWAP1 PUSH1 0x4 SWAP1 PUSH1 0x20 DUP5 ADD SWAP1 PUSH3 0x21E JUMP JUMPDEST POP POP POP PUSH3 0xCD PUSH3 0xC7 PUSH3 0xE0 PUSH1 0x20 SHL PUSH1 0x20 SHR JUMP JUMPDEST PUSH3 0xE4 JUMP JUMPDEST PUSH3 0xD9 CALLER DUP3 PUSH3 0x136 JUMP JUMPDEST POP PUSH3 0x342 JUMP JUMPDEST CALLER SWAP1 JUMP JUMPDEST PUSH1 0x5 DUP1 SLOAD PUSH1 0x1 PUSH1 0x1 PUSH1 0xA0 SHL SUB DUP4 DUP2 AND PUSH1 0x1 PUSH1 0x1 PUSH1 0xA0 SHL SUB NOT DUP4 AND DUP2 OR SWAP1 SWAP4 SSTORE PUSH1 0x40 MLOAD SWAP2 AND SWAP2 SWAP1 DUP3 SWAP1 PUSH32 0x8BE0079C531659141344CD1FD0A4F28419497F9722A3DAAFE3B4186F6B6457E0 SWAP1 PUSH1 0x0 SWAP1 LOG3 POP POP JUMP JUMPDEST PUSH1 0x1 PUSH1 0x1 PUSH1 0xA0 SHL SUB DUP3 AND PUSH3 0x191 JUMPI PUSH1 0x40 MLOAD PUSH3 0x461BCD PUSH1 0xE5 SHL DUP2 MSTORE PUSH1 0x20 PUSH1 0x4 DUP3 ADD MSTORE PUSH1 0x1F PUSH1 0x24 DUP3 ADD MSTORE PUSH32 0x45524332303A206D696E7420746F20746865207A65726F206164647265737300 PUSH1 0x44 DUP3 ADD MSTORE PUSH1 0x64 ADD PUSH1 0x40 MLOAD DUP1 SWAP2 SUB SWAP1 REVERT JUMPDEST DUP1 PUSH1 0x2 PUSH1 0x0 DUP3 DUP3 SLOAD PUSH3 0x1A5 SWAP2 SWAP1 PUSH3 0x2DE JUMP JUMPDEST SWAP1 SWAP2 SSTORE POP POP PUSH1 0x1 PUSH1 0x1 PUSH1 0xA0 SHL SUB DUP3 AND PUSH1 0x0 SWAP1 DUP2 MSTORE PUSH1 0x20 DUP2 SWAP1 MSTORE PUSH1 0x40 DUP2 KECCAK256 DUP1 SLOAD DUP4 SWAP3 SWAP1 PUSH3 0x1D4 SWAP1 DUP5 SWAP1 PUSH3 0x2DE JUMP JUMPDEST SWAP1 SWAP2 SSTORE POP POP PUSH1 0x40 MLOAD DUP2 DUP2 MSTORE PUSH1 0x1 PUSH1 0x1 PUSH1 0xA0 SHL SUB DUP4 AND SWAP1 PUSH1 0x0 SWAP1 PUSH32 0xDDF252AD1BE2C89B69C2B068FC378DAA952BA7F163C4A11628F55A4DF523B3EF SWAP1 PUSH1 0x20 ADD PUSH1 0x40 MLOAD DUP1 SWAP2 SUB SWAP1 LOG3 POP POP JUMP JUMPDEST DUP3 DUP1 SLOAD PUSH3 0x22C SWAP1 PUSH3 0x305 JUMP JUMPDEST SWAP1 PUSH1 0x0 MSTORE PUSH1 0x20 PUSH1 0x0 KECCAK256 SWAP1 PUSH1 0x1F ADD PUSH1 0x20 SWAP1 DIV DUP2 ADD SWAP3 DUP3 PUSH3 0x250 JUMPI PUSH1 0x0 DUP6 SSTORE PUSH3 0x29B JUMP JUMPDEST DUP3 PUSH1 0x1F LT PUSH3 0x26B JUMPI DUP1 MLOAD PUSH1 0xFF NOT AND DUP4 DUP1 ADD OR DUP6 SSTORE PUSH3 0x29B JUMP JUMPDEST DUP3 DUP1 ADD PUSH1 0x1 ADD DUP6 SSTORE DUP3 ISZERO PUSH3 0x29B JUMPI SWAP2 DUP3 ADD JUMPDEST DUP3 DUP2 GT ISZERO PUSH3 0x29B JUMPI DUP3 MLOAD DUP3 SSTORE SWAP2 PUSH1 0x20 ADD SWAP2 SWAP1 PUSH1 0x1 ADD SWAP1 PUSH3 0x27E JUMP JUMPDEST POP PUSH3 0x2A9 SWAP3 SWAP2 POP PUSH3 0x2AD JUMP JUMPDEST POP SWAP1 JUMP JUMPDEST JUMPDEST DUP1 DUP3 GT ISZERO PUSH3 0x2A9 JUMPI PUSH1 0x0 DUP2 SSTORE PUSH1 0x1 ADD PUSH3 0x2AE JUMP JUMPDEST PUSH1 0x0 PUSH1 0x20 DUP3 DUP5 SUB SLT ISZERO PUSH3 0x2D7 JUMPI PUSH1 0x0 DUP1 REVERT JUMPDEST POP MLOAD SWAP2 SWAP1 POP JUMP JUMPDEST PUSH1 0x0 DUP3 NOT DUP3 GT ISZERO PUSH3 0x300 JUMPI PUSH4 0x4E487B71 PUSH1 0xE0 SHL PUSH1 0x0 MSTORE PUSH1 0x11 PUSH1 0x4 MSTORE PUSH1 0x24 PUSH1 0x0 REVERT JUMPDEST POP ADD SWAP1 JUMP JUMPDEST PUSH1 0x1 DUP2 DUP2 SHR SWAP1 DUP3 AND DUP1 PUSH3 0x31A JUMPI PUSH1 0x7F DUP3 AND SWAP2 POP JUMPDEST PUSH1 0x20 DUP3 LT DUP2 EQ ISZERO PUSH3 0x33C JUMPI PUSH4 0x4E487B71 PUSH1 0xE0 SHL PUSH1 0x0 MSTORE PUSH1 0x22 PUSH1 0x4 MSTORE PUSH1 0x24 PUSH1 0x0 REVERT JUMPDEST POP SWAP2 SWAP1 POP JUMP JUMPDEST PUSH2 0xAC0 DUP1 PUSH3 0x352 PUSH1 0x0 CODECOPY PUSH1 0x0 RETURN INVALID PUSH1 0x80 PUSH1 0x40 MSTORE CALLVALUE DUP1 ISZERO PUSH2 0x10 JUMPI PUSH1 0x0 DUP1 REVERT JUMPDEST POP PUSH1 0x4 CALLDATASIZE LT PUSH2 0xEA JUMPI PUSH1 0x0 CALLDATALOAD PUSH1 0xE0 SHR DUP1 PUSH4 0x715018A6 GT PUSH2 0x8C JUMPI DUP1 PUSH4 0xA457C2D7 GT PUSH2 0x66 JUMPI DUP1 PUSH4 0xA457C2D7 EQ PUSH2 0x1CD JUMPI DUP1 PUSH4 0xA9059CBB EQ PUSH2 0x1E0 JUMPI DUP1 PUSH4 0xDD62ED3E EQ PUSH2 0x1F3 JUMPI DUP1 PUSH4 0xF2FDE38B EQ PUSH2 0x22C JUMPI PUSH1 0x0 DUP1 REVERT JUMPDEST DUP1 PUSH4 0x715018A6 EQ PUSH2 0x1A0 JUMPI DUP1 PUSH4 0x8DA5CB5B EQ PUSH2 0x1AA JUMPI DUP1 PUSH4 0x95D89B41 EQ PUSH2 0x1C5 JUMPI PUSH1 0x0 DUP1 REVERT JUMPDEST DUP1 PUSH4 0x23B872DD GT PUSH2 0xC8 JUMPI DUP1 PUSH4 0x23B872DD EQ PUSH2 0x142 JUMPI DUP1 PUSH4 0x313CE567 EQ PUSH2 0x155 JUMPI DUP1 PUSH4 0x39509351 EQ PUSH2 0x164 JUMPI DUP1 PUSH4 0x70A08231 EQ PUSH2 0x177 JUMPI PUSH1 0x0 DUP1 REVERT JUMPDEST DUP1 PUSH4 0x6FDDE03 EQ PUSH2 0xEF JUMPI DUP1 PUSH4 0x95EA7B3 EQ PUSH2 0x10D JUMPI DUP1 PUSH4 0x18160DDD EQ PUSH2 0x130 JUMPI JUMPDEST PUSH1 0x0 DUP1 REVERT JUMPDEST PUSH2 0xF7 PUSH2 0x23F JUMP JUMPDEST PUSH1 0x40 MLOAD PUSH2 0x104 SWAP2 SWAP1 PUSH2 0x8FD JUMP JUMPDEST PUSH1 0x40 MLOAD DUP1 SWAP2 SUB SWAP1 RETURN JUMPDEST PUSH2 0x120 PUSH2 0x11B CALLDATASIZE PUSH1 0x4 PUSH2 0x96E JUMP JUMPDEST PUSH2 0x2D1 JUMP JUMPDEST PUSH1 0x40 MLOAD SWAP1 ISZERO ISZERO DUP2 MSTORE PUSH1 0x20 ADD PUSH2 0x104 JUMP JUMPDEST PUSH1 0x2 SLOAD JUMPDEST PUSH1 0x40 MLOAD SWAP1 DUP2 MSTORE PUSH1 0x20 ADD PUSH2 0x104 JUMP JUMPDEST PUSH2 0x120 PUSH2 0x150 CALLDATASIZE PUSH1 0x4 PUSH2 0x998 JUMP JUMPDEST PUSH2 0x2E7 JUMP JUMPDEST PUSH1 0x40 MLOAD PUSH1 0x12 DUP2 MSTORE PUSH1 0x20 ADD PUSH2 0x104 JUMP JUMPDEST PUSH2 0x120 PUSH2 0x172 CALLDATASIZE PUSH1 0x4 PUSH2 0x96E JUMP JUMPDEST PUSH2 0x396 JUMP JUMPDEST PUSH2 0x134 PUSH2 0x185 CALLDATASIZE PUSH1 0x4 PUSH2 0x9D4 JUMP JUMPDEST PUSH1 0x1 PUSH1 0x1 PUSH1 0xA0 SHL SUB AND PUSH1 0x0 SWAP1 DUP2 MSTORE PUSH1 0x20 DUP2 SWAP1 MSTORE PUSH1 0x40 SWAP1 KECCAK256 SLOAD SWAP1 JUMP JUMPDEST PUSH2 0x1A8 PUSH2 0x3D2 JUMP JUMPDEST STOP JUMPDEST PUSH1 0x5 SLOAD PUSH1 0x40 MLOAD PUSH1 0x1 PUSH1 0x1 PUSH1 0xA0 SHL SUB SWAP1 SWAP2 AND DUP2 MSTORE PUSH1 0x20 ADD PUSH2 0x104 JUMP JUMPDEST PUSH2 0xF7 PUSH2 0x438 JUMP JUMPDEST PUSH2 0x120 PUSH2 0x1DB CALLDATASIZE PUSH1 0x4 PUSH2 0x96E JUMP JUMPDEST PUSH2 0x447 JUMP JUMPDEST PUSH2 0x120 PUSH2 0x1EE CALLDATASIZE PUSH1 0x4 PUSH2 0x96E JUMP JUMPDEST PUSH2 0x4E0 JUMP JUMPDEST PUSH2 0x134 PUSH2 0x201 CALLDATASIZE PUSH1 0x4 PUSH2 0x9F6 JUMP JUMPDEST PUSH1 0x1 PUSH1 0x1 PUSH1 0xA0 SHL SUB SWAP2 DUP3 AND PUSH1 0x0 SWAP1 DUP2 MSTORE PUSH1 0x1 PUSH1 0x20 SWAP1 DUP2 MSTORE PUSH1 0x40 DUP1 DUP4 KECCAK256 SWAP4 SWAP1 SWAP5 AND DUP3 MSTORE SWAP2 SWAP1 SWAP2 MSTORE KECCAK256 SLOAD SWAP1 JUMP JUMPDEST PUSH2 0x1A8 PUSH2 0x23A CALLDATASIZE PUSH1 0x4 PUSH2 0x9D4 JUMP JUMPDEST PUSH2 0x4ED JUMP JUMPDEST PUSH1 0x60 PUSH1 0x3 DUP1 SLOAD PUSH2 0x24E SWAP1 PUSH2 0xA29 JUMP JUMPDEST DUP1 PUSH1 0x1F ADD PUSH1 0x20 DUP1 SWAP2 DIV MUL PUSH1 0x20 ADD PUSH1 0x40 MLOAD SWAP1 DUP2 ADD PUSH1 0x40 MSTORE DUP1 SWAP3 SWAP2 SWAP1 DUP2 DUP2 MSTORE PUSH1 0x20 ADD DUP3 DUP1 SLOAD PUSH2 0x27A SWAP1 PUSH2 0xA29 JUMP JUMPDEST DUP1 ISZERO PUSH2 0x2C7 JUMPI DUP1 PUSH1 0x1F LT PUSH2 0x29C JUMPI PUSH2 0x100 DUP1 DUP4 SLOAD DIV MUL DUP4 MSTORE SWAP2 PUSH1 0x20 ADD SWAP2 PUSH2 0x2C7 JUMP JUMPDEST DUP3 ADD SWAP2 SWAP1 PUSH1 0x0 MSTORE PUSH1 0x20 PUSH1 0x0 KECCAK256 SWAP1 JUMPDEST DUP2 SLOAD DUP2 MSTORE SWAP1 PUSH1 0x1 ADD SWAP1 PUSH1 0x20 ADD DUP1 DUP4 GT PUSH2 0x2AA JUMPI DUP3 SWAP1 SUB PUSH1 0x1F AND DUP3 ADD SWAP2 JUMPDEST POP POP POP POP POP SWAP1 POP SWAP1 JUMP JUMPDEST PUSH1 0x0 PUSH2 0x2DE CALLER DUP5 DUP5 PUSH2 0x5B8 JUMP JUMPDEST POP PUSH1 0x1 SWAP3 SWAP2 POP POP JUMP JUMPDEST PUSH1 0x0 PUSH2 0x2F4 DUP5 DUP5 DUP5 PUSH2 0x6DC JUMP JUMPDEST PUSH1 0x1 PUSH1 0x1 PUSH1 0xA0 SHL SUB DUP5 AND PUSH1 0x0 SWAP1 DUP2 MSTORE PUSH1 0x1 PUSH1 0x20 SWAP1 DUP2 MSTORE PUSH1 0x40 DUP1 DUP4 KECCAK256 CALLER DUP5 MSTORE SWAP1 SWAP2 MSTORE SWAP1 KECCAK256 SLOAD DUP3 DUP2 LT ISZERO PUSH2 0x37E JUMPI PUSH1 0x40 MLOAD PUSH3 0x461BCD PUSH1 0xE5 SHL DUP2 MSTORE PUSH1 0x20 PUSH1 0x4 DUP3 ADD MSTORE PUSH1 0x28 PUSH1 0x24 DUP3 ADD MSTORE PUSH32 0x45524332303A207472616E7366657220616D6F756E7420657863656564732061 PUSH1 0x44 DUP3 ADD MSTORE PUSH8 0x6C6C6F77616E6365 PUSH1 0xC0 SHL PUSH1 0x64 DUP3 ADD MSTORE PUSH1 0x84 ADD JUMPDEST PUSH1 0x40 MLOAD DUP1 SWAP2 SUB SWAP1 REVERT JUMPDEST PUSH2 0x38B DUP6 CALLER DUP6 DUP5 SUB PUSH2 0x5B8 JUMP JUMPDEST POP PUSH1 0x1 SWAP5 SWAP4 POP POP POP POP JUMP JUMPDEST CALLER PUSH1 0x0 DUP2 DUP2 MSTORE PUSH1 0x1 PUSH1 0x20 SWAP1 DUP2 MSTORE PUSH1 0x40 DUP1 DUP4 KECCAK256 PUSH1 0x1 PUSH1 0x1 PUSH1 0xA0 SHL SUB DUP8 AND DUP5 MSTORE SWAP1 SWAP2 MSTORE DUP2 KECCAK256 SLOAD SWAP1 SWAP2 PUSH2 0x2DE SWAP2 DUP6 SWAP1 PUSH2 0x3CD SWAP1 DUP7 SWAP1 PUSH2 0xA64 JUMP JUMPDEST PUSH2 0x5B8 JUMP JUMPDEST PUSH1 0x5 SLOAD PUSH1 0x1 PUSH1 0x1 PUSH1 0xA0 SHL SUB AND CALLER EQ PUSH2 0x42C JUMPI PUSH1 0x40 MLOAD PUSH3 0x461BCD PUSH1 0xE5 SHL DUP2 MSTORE PUSH1 0x20 PUSH1 0x4 DUP3 ADD DUP2 SWAP1 MSTORE PUSH1 0x24 DUP3 ADD MSTORE PUSH32 0x4F776E61626C653A2063616C6C6572206973206E6F7420746865206F776E6572 PUSH1 0x44 DUP3 ADD MSTORE PUSH1 0x64 ADD PUSH2 0x375 JUMP JUMPDEST PUSH2 0x436 PUSH1 0x0 PUSH2 0x8AB JUMP JUMPDEST JUMP JUMPDEST PUSH1 0x60 PUSH1 0x4 DUP1 SLOAD PUSH2 0x24E SWAP1 PUSH2 0xA29 JUMP JUMPDEST CALLER PUSH1 0x0 SWAP1 DUP2 MSTORE PUSH1 0x1 PUSH1 0x20 SWAP1 DUP2 MSTORE PUSH1 0x40 DUP1 DUP4 KECCAK256 PUSH1 0x1 PUSH1 0x1 PUSH1 0xA0 SHL SUB DUP7 AND DUP5 MSTORE SWAP1 SWAP2 MSTORE DUP2 KECCAK256 SLOAD DUP3 DUP2 LT ISZERO PUSH2 0x4C9 JUMPI PUSH1 0x40 MLOAD PUSH3 0x461BCD PUSH1 0xE5 SHL DUP2 MSTORE PUSH1 0x20 PUSH1 0x4 DUP3 ADD MSTORE PUSH1 0x25 PUSH1 0x24 DUP3 ADD MSTORE PUSH32 0x45524332303A2064656372656173656420616C6C6F77616E63652062656C6F77 PUSH1 0x44 DUP3 ADD MSTORE PUSH5 0x207A65726F PUSH1 0xD8 SHL PUSH1 0x64 DUP3 ADD MSTORE PUSH1 0x84 ADD PUSH2 0x375 JUMP JUMPDEST PUSH2 0x4D6 CALLER DUP6 DUP6 DUP5 SUB PUSH2 0x5B8 JUMP JUMPDEST POP PUSH1 0x1 SWAP4 SWAP3 POP POP POP JUMP JUMPDEST PUSH1 0x0 PUSH2 0x2DE CALLER DUP5 DUP5 PUSH2 0x6DC JUMP JUMPDEST PUSH1 0x5 SLOAD PUSH1 0x1 PUSH1 0x1 PUSH1 0xA0 SHL SUB AND CALLER EQ PUSH2 0x547 JUMPI PUSH1 0x40 MLOAD PUSH3 0x461BCD PUSH1 0xE5 SHL DUP2 MSTORE PUSH1 0x20 PUSH1 0x4 DUP3 ADD DUP2 SWAP1 MSTORE PUSH1 0x24 DUP3 ADD MSTORE PUSH32 0x4F776E61626C653A2063616C6C6572206973206E6F7420746865206F776E6572 PUSH1 0x44 DUP3 ADD MSTORE PUSH1 0x64 ADD PUSH2 0x375 JUMP JUMPDEST PUSH1 0x1 PUSH1 0x1 PUSH1 0xA0 SHL SUB DUP2 AND PUSH2 0x5AC JUMPI PUSH1 0x40 MLOAD PUSH3 0x461BCD PUSH1 0xE5 SHL DUP2 MSTORE PUSH1 0x20 PUSH1 0x4 DUP3 ADD MSTORE PUSH1 0x26 PUSH1 0x24 DUP3 ADD MSTORE PUSH32 0x4F776E61626C653A206E6577206F776E657220697320746865207A65726F2061 PUSH1 0x44 DUP3 ADD MSTORE PUSH6 0x646472657373 PUSH1 0xD0 SHL PUSH1 0x64 DUP3 ADD MSTORE PUSH1 0x84 ADD PUSH2 0x375 JUMP JUMPDEST PUSH2 0x5B5 DUP2 PUSH2 0x8AB JUMP JUMPDEST POP JUMP JUMPDEST PUSH1 0x1 PUSH1 0x1 PUSH1 0xA0 SHL SUB DUP4 AND PUSH2 0x61A JUMPI PUSH1 0x40 MLOAD PUSH3 0x461BCD PUSH1 0xE5 SHL DUP2 MSTORE PUSH1 0x20 PUSH1 0x4 DUP3 ADD MSTORE PUSH1 0x24 DUP1 DUP3 ADD MSTORE PUSH32 0x45524332303A20617070726F76652066726F6D20746865207A65726F20616464 PUSH1 0x44 DUP3 ADD MSTORE PUSH4 0x72657373 PUSH1 0xE0 SHL PUSH1 0x64 DUP3 ADD MSTORE PUSH1 0x84 ADD PUSH2 0x375 JUMP JUMPDEST PUSH1 0x1 PUSH1 0x1 PUSH1 0xA0 SHL SUB DUP3 AND PUSH2 0x67B JUMPI PUSH1 0x40 MLOAD PUSH3 0x461BCD PUSH1 0xE5 SHL DUP2 MSTORE PUSH1 0x20 PUSH1 0x4 DUP3 ADD MSTORE PUSH1 0x22 PUSH1 0x24 DUP3 ADD MSTORE PUSH32 0x45524332303A20617070726F766520746F20746865207A65726F206164647265 PUSH1 0x44 DUP3 ADD MSTORE PUSH2 0x7373 PUSH1 0xF0 SHL PUSH1 0x64 DUP3 ADD MSTORE PUSH1 0x84 ADD PUSH2 0x375 JUMP JUMPDEST PUSH1 0x1 PUSH1 0x1 PUSH1 0xA0 SHL SUB DUP4 DUP2 AND PUSH1 0x0 DUP2 DUP2 MSTORE PUSH1 0x1 PUSH1 0x20 SWAP1 DUP2 MSTORE PUSH1 0x40 DUP1 DUP4 KECCAK256 SWAP5 DUP8 AND DUP1 DUP5 MSTORE SWAP5 DUP3 MSTORE SWAP2 DUP3 SWAP1 KECCAK256 DUP6 SWAP1 SSTORE SWAP1 MLOAD DUP5 DUP2 MSTORE PUSH32 0x8C5BE1E5EBEC7D5BD14F71427D1E84F3DD0314C0F7B2291E5B200AC8C7C3B925 SWAP2 ADD PUSH1 0x40 MLOAD DUP1 SWAP2 SUB SWAP1 LOG3 POP POP POP JUMP JUMPDEST PUSH1 0x1 PUSH1 0x1 PUSH1 0xA0 SHL SUB DUP4 AND PUSH2 0x740 JUMPI PUSH1 0x40 MLOAD PUSH3 0x461BCD PUSH1 0xE5 SHL DUP2 MSTORE PUSH1 0x20 PUSH1 0x4 DUP3 ADD MSTORE PUSH1 0x25 PUSH1 0x24 DUP3 ADD MSTORE PUSH32 0x45524332303A207472616E736665722066726F6D20746865207A65726F206164 PUSH1 0x44 DUP3 ADD MSTORE PUSH5 0x6472657373 PUSH1 0xD8 SHL PUSH1 0x64 DUP3 ADD MSTORE PUSH1 0x84 ADD PUSH2 0x375 JUMP JUMPDEST PUSH1 0x1 PUSH1 0x1 PUSH1 0xA0 SHL SUB DUP3 AND PUSH2 0x7A2 JUMPI PUSH1 0x40 MLOAD PUSH3 0x461BCD PUSH1 0xE5 SHL DUP2 MSTORE PUSH1 0x20 PUSH1 0x4 DUP3 ADD MSTORE PUSH1 0x23 PUSH1 0x24 DUP3 ADD MSTORE PUSH32 0x45524332303A207472616E7366657220746F20746865207A65726F2061646472 PUSH1 0x44 DUP3 ADD MSTORE PUSH3 0x657373 PUSH1 0xE8 SHL PUSH1 0x64 DUP3 ADD MSTORE PUSH1 0x84 ADD PUSH2 0x375 JUMP JUMPDEST PUSH1 0x1 PUSH1 0x1 PUSH1 0xA0 SHL SUB DUP4 AND PUSH1 0x0 SWAP1 DUP2 MSTORE PUSH1 0x20 DUP2 SWAP1 MSTORE PUSH1 0x40 SWAP1 KECCAK256 SLOAD DUP2 DUP2 LT ISZERO PUSH2 0x81A JUMPI PUSH1 0x40 MLOAD PUSH3 0x461BCD PUSH1 0xE5 SHL DUP2 MSTORE PUSH1 0x20 PUSH1 0x4 DUP3 ADD MSTORE PUSH1 0x26 PUSH1 0x24 DUP3 ADD MSTORE PUSH32 0x45524332303A207472616E7366657220616D6F756E7420657863656564732062 PUSH1 0x44 DUP3 ADD MSTORE PUSH6 0x616C616E6365 PUSH1 0xD0 SHL PUSH1 0x64 DUP3 ADD MSTORE PUSH1 0x84 ADD PUSH2 0x375 JUMP JUMPDEST PUSH1 0x1 PUSH1 0x1 PUSH1 0xA0 SHL SUB DUP1 DUP6 AND PUSH1 0x0 SWAP1 DUP2 MSTORE PUSH1 0x20 DUP2 SWAP1 MSTORE PUSH1 0x40 DUP1 DUP3 KECCAK256 DUP6 DUP6 SUB SWAP1 SSTORE SWAP2 DUP6 AND DUP2 MSTORE SWAP1 DUP2 KECCAK256 DUP1 SLOAD DUP5 SWAP3 SWAP1 PUSH2 0x851 SWAP1 DUP5 SWAP1 PUSH2 0xA64 JUMP JUMPDEST SWAP3 POP POP DUP2 SWAP1 SSTORE POP DUP3 PUSH1 0x1 PUSH1 0x1 PUSH1 0xA0 SHL SUB AND DUP5 PUSH1 0x1 PUSH1 0x1 PUSH1 0xA0 SHL SUB AND PUSH32 0xDDF252AD1BE2C89B69C2B068FC378DAA952BA7F163C4A11628F55A4DF523B3EF DUP5 PUSH1 0x40 MLOAD PUSH2 0x89D SWAP2 DUP2 MSTORE PUSH1 0x20 ADD SWAP1 JUMP JUMPDEST PUSH1 0x40 MLOAD DUP1 SWAP2 SUB SWAP1 LOG3 POP POP POP POP JUMP JUMPDEST PUSH1 0x5 DUP1 SLOAD PUSH1 0x1 PUSH1 0x1 PUSH1 0xA0 SHL SUB DUP4 DUP2 AND PUSH1 0x1 PUSH1 0x1 PUSH1 0xA0 SHL SUB NOT DUP4 AND DUP2 OR SWAP1 SWAP4 SSTORE PUSH1 0x40 MLOAD SWAP2 AND SWAP2 SWAP1 DUP3 SWAP1 PUSH32 0x8BE0079C531659141344CD1FD0A4F28419497F9722A3DAAFE3B4186F6B6457E0 SWAP1 PUSH1 0x0 SWAP1 LOG3 POP POP JUMP JUMPDEST PUSH1 0x0 PUSH1 0x20 DUP1 DUP4 MSTORE DUP4 MLOAD DUP1 DUP3 DUP6 ADD MSTORE PUSH1 0x0 JUMPDEST DUP2 DUP2 LT ISZERO PUSH2 0x92A JUMPI DUP6 DUP2 ADD DUP4 ADD MLOAD DUP6 DUP3 ADD PUSH1 0x40 ADD MSTORE DUP3 ADD PUSH2 0x90E JUMP JUMPDEST DUP2 DUP2 GT ISZERO PUSH2 0x93C JUMPI PUSH1 0x0 PUSH1 0x40 DUP4 DUP8 ADD ADD MSTORE JUMPDEST POP PUSH1 0x1F ADD PUSH1 0x1F NOT AND SWAP3 SWAP1 SWAP3 ADD PUSH1 0x40 ADD SWAP4 SWAP3 POP POP POP JUMP JUMPDEST DUP1 CALLDATALOAD PUSH1 0x1 PUSH1 0x1 PUSH1 0xA0 SHL SUB DUP2 AND DUP2 EQ PUSH2 0x969 JUMPI PUSH1 0x0 DUP1 REVERT JUMPDEST SWAP2 SWAP1 POP JUMP JUMPDEST PUSH1 0x0 DUP1 PUSH1 0x40 DUP4 DUP6 SUB SLT ISZERO PUSH2 0x981 JUMPI PUSH1 0x0 DUP1 REVERT JUMPDEST PUSH2 0x98A DUP4 PUSH2 0x952 JUMP JUMPDEST SWAP5 PUSH1 0x20 SWAP4 SWAP1 SWAP4 ADD CALLDATALOAD SWAP4 POP POP POP JUMP JUMPDEST PUSH1 0x0 DUP1 PUSH1 0x0 PUSH1 0x60 DUP5 DUP7 SUB SLT ISZERO PUSH2 0x9AD JUMPI PUSH1 0x0 DUP1 REVERT JUMPDEST PUSH2 0x9B6 DUP5 PUSH2 0x952 JUMP JUMPDEST SWAP3 POP PUSH2 0x9C4 PUSH1 0x20 DUP6 ADD PUSH2 0x952 JUMP JUMPDEST SWAP2 POP PUSH1 0x40 DUP5 ADD CALLDATALOAD SWAP1 POP SWAP3 POP SWAP3 POP SWAP3 JUMP JUMPDEST PUSH1 0x0 PUSH1 0x20 DUP3 DUP5 SUB SLT ISZERO PUSH2 0x9E6 JUMPI PUSH1 0x0 DUP1 REVERT JUMPDEST PUSH2 0x9EF DUP3 PUSH2 0x952 JUMP JUMPDEST SWAP4 SWAP3 POP POP POP JUMP JUMPDEST PUSH1 0x0 DUP1 PUSH1 0x40 DUP4 DUP6 SUB SLT ISZERO PUSH2 0xA09 JUMPI PUSH1 0x0 DUP1 REVERT JUMPDEST PUSH2 0xA12 DUP4 PUSH2 0x952 JUMP JUMPDEST SWAP2 POP PUSH2 0xA20 PUSH1 0x20 DUP5 ADD PUSH2 0x952 JUMP JUMPDEST SWAP1 POP SWAP3 POP SWAP3 SWAP1 POP JUMP JUMPDEST PUSH1 0x1 DUP2 DUP2 SHR SWAP1 DUP3 AND DUP1 PUSH2 0xA3D JUMPI PUSH1 0x7F DUP3 AND SWAP2 POP JUMPDEST PUSH1 0x20 DUP3 LT DUP2 EQ ISZERO PUSH2 0xA5E JUMPI PUSH4 0x4E487B71 PUSH1 0xE0 SHL PUSH1 0x0 MSTORE PUSH1 0x22 PUSH1 0x4 MSTORE PUSH1 0x24 PUSH1 0x0 REVERT JUMPDEST POP SWAP2 SWAP1 POP JUMP JUMPDEST PUSH1 0x0 DUP3 NOT DUP3 GT ISZERO PUSH2 0xA85 JUMPI PUSH4 0x4E487B71 PUSH1 0xE0 SHL PUSH1 0x0 MSTORE PUSH1 0x11 PUSH1 0x4 MSTORE PUSH1 0x24 PUSH1 0x0 REVERT JUMPDEST POP ADD SWAP1 JUMP INVALID LOG2 PUSH5 0x6970667358 0x22 SLT KECCAK256 SDIV 0xAD 0xFC 0xE7 0xAE PUSH5 0x768F60C8B1 PUSH17 0xC22B7E16E606474A84BCE396AE520C8C9F MUL JUMPDEST PUSH22 0x64736F6C634300080A003360C060405260C860095560 NOT PUSH1 0xA SSTORE PUSH1 0xA PUSH1 0xB SSTORE PUSH3 0x3F480 PUSH1 0xC SSTORE CALLVALUE DUP1 ISZERO PUSH3 0x27 JUMPI PUSH1 0x0 DUP1 REVERT JUMPDEST POP PUSH1 0x40 MLOAD PUSH3 0x1C8E CODESIZE SUB DUP1 PUSH3 0x1C8E DUP4 CODECOPY DUP2 ADD PUSH1 0x40 DUP2 SWAP1 MSTORE PUSH3 0x4A SWAP2 PUSH3 0x33C JUMP JUMPDEST PUSH3 0x55 CALLER PUSH3 0xE7 JUMP JUMPDEST PUSH1 0x0 DUP1 SLOAD PUSH1 0xFF PUSH1 0xA0 SHL NOT AND SWAP1 SSTORE DUP7 MLOAD PUSH3 0x77 SWAP1 PUSH1 0x8 SWAP1 PUSH1 0x20 DUP11 ADD SWAP1 PUSH3 0x137 JUMP JUMPDEST POP PUSH1 0x1 PUSH1 0x1 PUSH1 0xA0 SHL SUB DUP7 AND PUSH1 0x80 MSTORE DUP5 MLOAD PUSH3 0x9A SWAP1 PUSH1 0x1 SWAP1 PUSH1 0x20 DUP9 ADD SWAP1 PUSH3 0x1C6 JUMP JUMPDEST POP PUSH1 0x1 PUSH1 0x1 PUSH1 0xA0 SHL SUB SWAP4 DUP5 AND PUSH1 0xA0 MSTORE PUSH1 0x5 DUP1 SLOAD SWAP4 DUP6 AND PUSH1 0x1 PUSH1 0x1 PUSH1 0xA0 SHL SUB NOT SWAP5 DUP6 AND OR SWAP1 SSTORE PUSH1 0x7 DUP1 SLOAD SWAP3 DUP6 AND SWAP3 DUP5 AND SWAP3 SWAP1 SWAP3 OR SWAP1 SWAP2 SSTORE PUSH1 0x6 DUP1 SLOAD SWAP2 SWAP1 SWAP4 AND SWAP2 AND OR SWAP1 SSTORE POP PUSH3 0x4BB SWAP2 POP POP JUMP JUMPDEST PUSH1 0x0 DUP1 SLOAD PUSH1 0x1 PUSH1 0x1 PUSH1 0xA0 SHL SUB DUP4 DUP2 AND PUSH1 0x1 PUSH1 0x1 PUSH1 0xA0 SHL SUB NOT DUP4 AND DUP2 OR DUP5 SSTORE PUSH1 0x40 MLOAD SWAP2 SWAP1 SWAP3 AND SWAP3 DUP4 SWAP2 PUSH32 0x8BE0079C531659141344CD1FD0A4F28419497F9722A3DAAFE3B4186F6B6457E0 SWAP2 SWAP1 LOG3 POP POP JUMP JUMPDEST DUP3 DUP1 SLOAD PUSH3 0x145 SWAP1 PUSH3 0x47E JUMP JUMPDEST SWAP1 PUSH1 0x0 MSTORE PUSH1 0x20 PUSH1 0x0 KECCAK256 SWAP1 PUSH1 0x1F ADD PUSH1 0x20 SWAP1 DIV DUP2 ADD SWAP3 DUP3 PUSH3 0x169 JUMPI PUSH1 0x0 DUP6 SSTORE PUSH3 0x1B4 JUMP JUMPDEST DUP3 PUSH1 0x1F LT PUSH3 0x184 JUMPI DUP1 MLOAD PUSH1 0xFF NOT AND DUP4 DUP1 ADD OR DUP6 SSTORE PUSH3 0x1B4 JUMP JUMPDEST DUP3 DUP1 ADD PUSH1 0x1 ADD DUP6 SSTORE DUP3 ISZERO PUSH3 0x1B4 JUMPI SWAP2 DUP3 ADD JUMPDEST DUP3 DUP2 GT ISZERO PUSH3 0x1B4 JUMPI DUP3 MLOAD DUP3 SSTORE SWAP2 PUSH1 0x20 ADD SWAP2 SWAP1 PUSH1 0x1 ADD SWAP1 PUSH3 0x197 JUMP JUMPDEST POP PUSH3 0x1C2 SWAP3 SWAP2 POP PUSH3 0x21E JUMP JUMPDEST POP SWAP1 JUMP JUMPDEST DUP3 DUP1 SLOAD DUP3 DUP3 SSTORE SWAP1 PUSH1 0x0 MSTORE PUSH1 0x20 PUSH1 0x0 KECCAK256 SWAP1 DUP2 ADD SWAP3 DUP3 ISZERO PUSH3 0x1B4 JUMPI SWAP2 PUSH1 0x20 MUL DUP3 ADD JUMPDEST DUP3 DUP2 GT ISZERO PUSH3 0x1B4 JUMPI DUP3 MLOAD DUP3 SLOAD PUSH1 0x1 PUSH1 0x1 PUSH1 0xA0 SHL SUB NOT AND PUSH1 0x1 PUSH1 0x1 PUSH1 0xA0 SHL SUB SWAP1 SWAP2 AND OR DUP3 SSTORE PUSH1 0x20 SWAP1 SWAP3 ADD SWAP2 PUSH1 0x1 SWAP1 SWAP2 ADD SWAP1 PUSH3 0x1E7 JUMP JUMPDEST JUMPDEST DUP1 DUP3 GT ISZERO PUSH3 0x1C2 JUMPI PUSH1 0x0 DUP2 SSTORE PUSH1 0x1 ADD PUSH3 0x21F JUMP JUMPDEST PUSH4 0x4E487B71 PUSH1 0xE0 SHL PUSH1 0x0 MSTORE PUSH1 0x41 PUSH1 0x4 MSTORE PUSH1 0x24 PUSH1 0x0 REVERT JUMPDEST PUSH1 0x40 MLOAD PUSH1 0x1F DUP3 ADD PUSH1 0x1F NOT AND DUP2 ADD PUSH1 0x1 PUSH1 0x1 PUSH1 0x40 SHL SUB DUP2 GT DUP3 DUP3 LT OR ISZERO PUSH3 0x276 JUMPI PUSH3 0x276 PUSH3 0x235 JUMP JUMPDEST PUSH1 0x40 MSTORE SWAP2 SWAP1 POP JUMP JUMPDEST PUSH1 0x1 PUSH1 0x1 PUSH1 0xA0 SHL SUB DUP2 AND DUP2 EQ PUSH3 0x294 JUMPI PUSH1 0x0 DUP1 REVERT JUMPDEST POP JUMP JUMPDEST DUP1 MLOAD PUSH3 0x2A4 DUP2 PUSH3 0x27E JUMP JUMPDEST SWAP2 SWAP1 POP JUMP JUMPDEST PUSH1 0x0 DUP3 PUSH1 0x1F DUP4 ADD SLT PUSH3 0x2BB JUMPI PUSH1 0x0 DUP1 REVERT JUMPDEST DUP2 MLOAD PUSH1 0x20 PUSH1 0x1 PUSH1 0x1 PUSH1 0x40 SHL SUB DUP3 GT ISZERO PUSH3 0x2D9 JUMPI PUSH3 0x2D9 PUSH3 0x235 JUMP JUMPDEST DUP2 PUSH1 0x5 SHL PUSH3 0x2EA DUP3 DUP3 ADD PUSH3 0x24B JUMP JUMPDEST SWAP3 DUP4 MSTORE DUP5 DUP2 ADD DUP3 ADD SWAP3 DUP3 DUP2 ADD SWAP1 DUP8 DUP6 GT ISZERO PUSH3 0x305 JUMPI PUSH1 0x0 DUP1 REVERT JUMPDEST DUP4 DUP8 ADD SWAP3 POP JUMPDEST DUP5 DUP4 LT ISZERO PUSH3 0x331 JUMPI DUP3 MLOAD PUSH3 0x321 DUP2 PUSH3 0x27E JUMP JUMPDEST DUP3 MSTORE SWAP2 DUP4 ADD SWAP2 SWAP1 DUP4 ADD SWAP1 PUSH3 0x30B JUMP JUMPDEST SWAP8 SWAP7 POP POP POP POP POP POP POP JUMP JUMPDEST PUSH1 0x0 DUP1 PUSH1 0x0 DUP1 PUSH1 0x0 DUP1 PUSH1 0x0 PUSH1 0xE0 DUP9 DUP11 SUB SLT ISZERO PUSH3 0x358 JUMPI PUSH1 0x0 DUP1 REVERT JUMPDEST DUP8 MLOAD PUSH1 0x1 PUSH1 0x1 PUSH1 0x40 SHL SUB DUP1 DUP3 GT ISZERO PUSH3 0x370 JUMPI PUSH1 0x0 DUP1 REVERT JUMPDEST DUP2 DUP11 ADD SWAP2 POP DUP11 PUSH1 0x1F DUP4 ADD SLT PUSH3 0x385 JUMPI PUSH1 0x0 DUP1 REVERT JUMPDEST DUP2 MLOAD DUP2 DUP2 GT ISZERO PUSH3 0x39A JUMPI PUSH3 0x39A PUSH3 0x235 JUMP JUMPDEST PUSH1 0x20 PUSH3 0x3B0 PUSH1 0x1F DUP4 ADD PUSH1 0x1F NOT AND DUP3 ADD PUSH3 0x24B JUMP JUMPDEST DUP3 DUP2 MSTORE DUP14 DUP3 DUP5 DUP8 ADD ADD GT ISZERO PUSH3 0x3C5 JUMPI PUSH1 0x0 DUP1 REVERT JUMPDEST PUSH1 0x0 JUMPDEST DUP4 DUP2 LT ISZERO PUSH3 0x3E5 JUMPI DUP6 DUP2 ADD DUP4 ADD MLOAD DUP3 DUP3 ADD DUP5 ADD MSTORE DUP3 ADD PUSH3 0x3C8 JUMP JUMPDEST DUP4 DUP2 GT ISZERO PUSH3 0x3F7 JUMPI PUSH1 0x0 DUP4 DUP6 DUP5 ADD ADD MSTORE JUMPDEST POP SWAP11 POP PUSH3 0x407 DUP13 DUP3 ADD PUSH3 0x297 JUMP JUMPDEST SWAP10 POP POP POP PUSH1 0x40 DUP11 ADD MLOAD SWAP2 POP DUP1 DUP3 GT ISZERO PUSH3 0x420 JUMPI PUSH1 0x0 DUP1 REVERT JUMPDEST POP PUSH3 0x42F DUP11 DUP3 DUP12 ADD PUSH3 0x2A9 JUMP JUMPDEST SWAP6 POP POP PUSH3 0x440 PUSH1 0x60 DUP10 ADD PUSH3 0x297 JUMP JUMPDEST SWAP4 POP PUSH3 0x450 PUSH1 0x80 DUP10 ADD PUSH3 0x297 JUMP JUMPDEST SWAP3 POP PUSH3 0x460 PUSH1 0xA0 DUP10 ADD PUSH3 0x297 JUMP JUMPDEST SWAP2 POP PUSH3 0x470 PUSH1 0xC0 DUP10 ADD PUSH3 0x297 JUMP JUMPDEST SWAP1 POP SWAP3 SWAP6 SWAP9 SWAP2 SWAP5 SWAP8 POP SWAP3 SWAP6 POP JUMP JUMPDEST PUSH1 0x1 DUP2 DUP2 SHR SWAP1 DUP3 AND DUP1 PUSH3 0x493 JUMPI PUSH1 0x7F DUP3 AND SWAP2 POP JUMPDEST PUSH1 0x20 DUP3 LT DUP2 EQ ISZERO PUSH3 0x4B5 JUMPI PUSH4 0x4E487B71 PUSH1 0xE0 SHL PUSH1 0x0 MSTORE PUSH1 0x22 PUSH1 0x4 MSTORE PUSH1 0x24 PUSH1 0x0 REVERT JUMPDEST POP SWAP2 SWAP1 POP JUMP JUMPDEST PUSH1 0x80 MLOAD PUSH1 0xA0 MLOAD PUSH2 0x1783 PUSH3 0x50B PUSH1 0x0 CODECOPY PUSH1 0x0 DUP2 DUP2 PUSH2 0x443 ADD MSTORE PUSH2 0x113B ADD MSTORE PUSH1 0x0 DUP2 DUP2 PUSH2 0x490 ADD MSTORE DUP2 DUP2 PUSH2 0x85A ADD MSTORE DUP2 DUP2 PUSH2 0x92A ADD MSTORE DUP2 DUP2 PUSH2 0xAA7 ADD MSTORE DUP2 DUP2 PUSH2 0xF40 ADD MSTORE PUSH2 0x10AB ADD MSTORE PUSH2 0x1783 PUSH1 0x0 RETURN INVALID PUSH1 0x80 PUSH1 0x40 MSTORE CALLVALUE DUP1 ISZERO PUSH2 0x10 JUMPI PUSH1 0x0 DUP1 REVERT JUMPDEST POP PUSH1 0x4 CALLDATASIZE LT PUSH2 0x21C JUMPI PUSH1 0x0 CALLDATALOAD PUSH1 0xE0 SHR DUP1 PUSH4 0x8456CB59 GT PUSH2 0x125 JUMPI DUP1 PUSH4 0xBDCA9165 GT PUSH2 0xAD JUMPI DUP1 PUSH4 0xE941FA78 GT PUSH2 0x7C JUMPI DUP1 PUSH4 0xE941FA78 EQ PUSH2 0x435 JUMPI DUP1 PUSH4 0xEC78E832 EQ PUSH2 0x43E JUMPI DUP1 PUSH4 0xF2FDE38B EQ PUSH2 0x465 JUMPI DUP1 PUSH4 0xF851A440 EQ PUSH2 0x478 JUMPI DUP1 PUSH4 0xFC0C546A EQ PUSH2 0x48B JUMPI PUSH1 0x0 DUP1 REVERT JUMPDEST DUP1 PUSH4 0xBDCA9165 EQ PUSH2 0x410 JUMPI DUP1 PUSH4 0xD4B0DE2F EQ PUSH2 0x2BE JUMPI DUP1 PUSH4 0xDEF68A9C EQ PUSH2 0x419 JUMPI DUP1 PUSH4 0xDF10B4E6 EQ PUSH2 0x42C JUMPI PUSH1 0x0 DUP1 REVERT JUMPDEST DUP1 PUSH4 0x8DA5CB5B GT PUSH2 0xF4 JUMPI DUP1 PUSH4 0x8DA5CB5B EQ PUSH2 0x3C7 JUMPI DUP1 PUSH4 0x90321E1A EQ PUSH2 0x3D8 JUMPI DUP1 PUSH4 0xB60F0531 EQ PUSH2 0x3E1 JUMPI DUP1 PUSH4 0xB6AC642A EQ PUSH2 0x3EA JUMPI DUP1 PUSH4 0xB6B55F25 EQ PUSH2 0x3FD JUMPI PUSH1 0x0 DUP1 REVERT JUMPDEST DUP1 PUSH4 0x8456CB59 EQ PUSH2 0x39B JUMPI DUP1 PUSH4 0x853828B6 EQ PUSH2 0x3A3 JUMPI DUP1 PUSH4 0x87788782 EQ PUSH2 0x3AB JUMPI DUP1 PUSH4 0x8CCE6FCA EQ PUSH2 0x3B4 JUMPI PUSH1 0x0 DUP1 REVERT JUMPDEST DUP1 PUSH4 0x481C6A75 GT PUSH2 0x1A8 JUMPI DUP1 PUSH4 0x704B6C02 GT PUSH2 0x177 JUMPI DUP1 PUSH4 0x704B6C02 EQ PUSH2 0x365 JUMPI DUP1 PUSH4 0x70897B23 EQ PUSH2 0x378 JUMPI DUP1 PUSH4 0x715018A6 EQ PUSH2 0x38B JUMPI DUP1 PUSH4 0x722713F7 EQ PUSH2 0x32D JUMPI DUP1 PUSH4 0x77C7B8FC EQ PUSH2 0x393 JUMPI PUSH1 0x0 DUP1 REVERT JUMPDEST DUP1 PUSH4 0x481C6A75 EQ PUSH2 0x302 JUMPI DUP1 PUSH4 0x48A0D754 EQ PUSH2 0x32D JUMPI DUP1 PUSH4 0x5C975ABB EQ PUSH2 0x335 JUMPI DUP1 PUSH4 0x61D027B3 EQ PUSH2 0x352 JUMPI PUSH1 0x0 DUP1 REVERT JUMPDEST DUP1 PUSH4 0x2AD5A53F GT PUSH2 0x1EF JUMPI DUP1 PUSH4 0x2AD5A53F EQ PUSH2 0x2BE JUMPI DUP1 PUSH4 0x2CFC5F01 EQ PUSH2 0x2D4 JUMPI DUP1 PUSH4 0x2E1A7D4D EQ PUSH2 0x2DE JUMPI DUP1 PUSH4 0x3A98EF39 EQ PUSH2 0x2F1 JUMPI DUP1 PUSH4 0x3F4BA83A EQ PUSH2 0x2FA JUMPI PUSH1 0x0 DUP1 REVERT JUMPDEST DUP1 PUSH4 0x6FDDE03 EQ PUSH2 0x221 JUMPI DUP1 PUSH4 0x1959A002 EQ PUSH2 0x23F JUMPI DUP1 PUSH4 0x1EFAC1B8 EQ PUSH2 0x296 JUMPI DUP1 PUSH4 0x26465826 EQ PUSH2 0x2AB JUMPI JUMPDEST PUSH1 0x0 DUP1 REVERT JUMPDEST PUSH2 0x229 PUSH2 0x4B2 JUMP JUMPDEST PUSH1 0x40 MLOAD PUSH2 0x236 SWAP2 SWAP1 PUSH2 0x14D1 JUMP JUMPDEST PUSH1 0x40 MLOAD DUP1 SWAP2 SUB SWAP1 RETURN JUMPDEST PUSH2 0x276 PUSH2 0x24D CALLDATASIZE PUSH1 0x4 PUSH2 0x1526 JUMP JUMPDEST PUSH1 0x2 PUSH1 0x20 DUP2 SWAP1 MSTORE PUSH1 0x0 SWAP2 DUP3 MSTORE PUSH1 0x40 SWAP1 SWAP2 KECCAK256 DUP1 SLOAD PUSH1 0x1 DUP3 ADD SLOAD SWAP3 DUP3 ADD SLOAD PUSH1 0x3 SWAP1 SWAP3 ADD SLOAD SWAP1 SWAP3 SWAP2 SWAP1 DUP5 JUMP JUMPDEST PUSH1 0x40 DUP1 MLOAD SWAP5 DUP6 MSTORE PUSH1 0x20 DUP6 ADD SWAP4 SWAP1 SWAP4 MSTORE SWAP2 DUP4 ADD MSTORE PUSH1 0x60 DUP3 ADD MSTORE PUSH1 0x80 ADD PUSH2 0x236 JUMP JUMPDEST PUSH2 0x2A9 PUSH2 0x2A4 CALLDATASIZE PUSH1 0x4 PUSH2 0x154F JUMP JUMPDEST PUSH2 0x540 JUMP JUMPDEST STOP JUMPDEST PUSH2 0x2A9 PUSH2 0x2B9 CALLDATASIZE PUSH1 0x4 PUSH2 0x154F JUMP JUMPDEST PUSH2 0x5F1 JUMP JUMPDEST PUSH2 0x2C6 PUSH1 0x64 DUP2 JUMP JUMPDEST PUSH1 0x40 MLOAD SWAP1 DUP2 MSTORE PUSH1 0x20 ADD PUSH2 0x236 JUMP JUMPDEST PUSH2 0x2C6 PUSH3 0x3F480 DUP2 JUMP JUMPDEST PUSH2 0x2A9 PUSH2 0x2EC CALLDATASIZE PUSH1 0x4 PUSH2 0x154F JUMP JUMPDEST PUSH2 0x682 JUMP JUMPDEST PUSH2 0x2C6 PUSH1 0x3 SLOAD DUP2 JUMP JUMPDEST PUSH2 0x2A9 PUSH2 0x9E2 JUMP JUMPDEST PUSH1 0x7 SLOAD PUSH2 0x315 SWAP1 PUSH1 0x1 PUSH1 0x1 PUSH1 0xA0 SHL SUB AND DUP2 JUMP JUMPDEST PUSH1 0x40 MLOAD PUSH1 0x1 PUSH1 0x1 PUSH1 0xA0 SHL SUB SWAP1 SWAP2 AND DUP2 MSTORE PUSH1 0x20 ADD PUSH2 0x236 JUMP JUMPDEST PUSH2 0x2C6 PUSH2 0xA8F JUMP JUMPDEST PUSH1 0x0 SLOAD PUSH1 0x1 PUSH1 0xA0 SHL SWAP1 DIV PUSH1 0xFF AND PUSH1 0x40 MLOAD SWAP1 ISZERO ISZERO DUP2 MSTORE PUSH1 0x20 ADD PUSH2 0x236 JUMP JUMPDEST PUSH1 0x6 SLOAD PUSH2 0x315 SWAP1 PUSH1 0x1 PUSH1 0x1 PUSH1 0xA0 SHL SUB AND DUP2 JUMP JUMPDEST PUSH2 0x2A9 PUSH2 0x373 CALLDATASIZE PUSH1 0x4 PUSH2 0x1526 JUMP JUMPDEST PUSH2 0xB1F JUMP JUMPDEST PUSH2 0x2A9 PUSH2 0x386 CALLDATASIZE PUSH1 0x4 PUSH2 0x154F JUMP JUMPDEST PUSH2 0xBBA JUMP JUMPDEST PUSH2 0x2A9 PUSH2 0xC5A JUMP JUMPDEST PUSH2 0x2C6 PUSH2 0xC90 JUMP JUMPDEST PUSH2 0x2A9 PUSH2 0xCC3 JUMP JUMPDEST PUSH2 0x2A9 PUSH2 0xD4A JUMP JUMPDEST PUSH2 0x2C6 PUSH1 0x9 SLOAD DUP2 JUMP JUMPDEST PUSH2 0x315 PUSH2 0x3C2 CALLDATASIZE PUSH1 0x4 PUSH2 0x154F JUMP JUMPDEST PUSH2 0xDA1 JUMP JUMPDEST PUSH1 0x0 SLOAD PUSH1 0x1 PUSH1 0x1 PUSH1 0xA0 SHL SUB AND PUSH2 0x315 JUMP JUMPDEST PUSH2 0x2C6 PUSH1 0xA SLOAD DUP2 JUMP JUMPDEST PUSH2 0x2C6 PUSH1 0x4 SLOAD DUP2 JUMP JUMPDEST PUSH2 0x2A9 PUSH2 0x3F8 CALLDATASIZE PUSH1 0x4 PUSH2 0x154F JUMP JUMPDEST PUSH2 0xDCB JUMP JUMPDEST PUSH2 0x2A9 PUSH2 0x40B CALLDATASIZE PUSH1 0x4 PUSH2 0x154F JUMP JUMPDEST PUSH2 0xE64 JUMP JUMPDEST PUSH2 0x2C6 PUSH2 0x1F4 DUP2 JUMP JUMPDEST PUSH2 0x2A9 PUSH2 0x427 CALLDATASIZE PUSH1 0x4 PUSH2 0x1526 JUMP JUMPDEST PUSH2 0x107F JUMP JUMPDEST PUSH2 0x2C6 PUSH1 0xC SLOAD DUP2 JUMP JUMPDEST PUSH2 0x2C6 PUSH1 0xB SLOAD DUP2 JUMP JUMPDEST PUSH2 0x315 PUSH32 0x0 DUP2 JUMP JUMPDEST PUSH2 0x2A9 PUSH2 0x473 CALLDATASIZE PUSH1 0x4 PUSH2 0x1526 JUMP JUMPDEST PUSH2 0x12AD JUMP JUMPDEST PUSH1 0x5 SLOAD PUSH2 0x315 SWAP1 PUSH1 0x1 PUSH1 0x1 PUSH1 0xA0 SHL SUB AND DUP2 JUMP JUMPDEST PUSH2 0x315 PUSH32 0x0 DUP2 JUMP JUMPDEST PUSH1 0x8 DUP1 SLOAD PUSH2 0x4BF SWAP1 PUSH2 0x1568 JUMP JUMPDEST DUP1 PUSH1 0x1F ADD PUSH1 0x20 DUP1 SWAP2 DIV MUL PUSH1 0x20 ADD PUSH1 0x40 MLOAD SWAP1 DUP2 ADD PUSH1 0x40 MSTORE DUP1 SWAP3 SWAP2 SWAP1 DUP2 DUP2 MSTORE PUSH1 0x20 ADD DUP3 DUP1 SLOAD PUSH2 0x4EB SWAP1 PUSH2 0x1568 JUMP JUMPDEST DUP1 ISZERO PUSH2 0x538 JUMPI DUP1 PUSH1 0x1F LT PUSH2 0x50D JUMPI PUSH2 0x100 DUP1 DUP4 SLOAD DIV MUL DUP4 MSTORE SWAP2 PUSH1 0x20 ADD SWAP2 PUSH2 0x538 JUMP JUMPDEST DUP3 ADD SWAP2 SWAP1 PUSH1 0x0 MSTORE PUSH1 0x20 PUSH1 0x0 KECCAK256 SWAP1 JUMPDEST DUP2 SLOAD DUP2 MSTORE SWAP1 PUSH1 0x1 ADD SWAP1 PUSH1 0x20 ADD DUP1 DUP4 GT PUSH2 0x51B JUMPI DUP3 SWAP1 SUB PUSH1 0x1F AND DUP3 ADD SWAP2 JUMPDEST POP POP POP POP POP DUP2 JUMP JUMPDEST PUSH1 0x5 SLOAD PUSH1 0x1 PUSH1 0x1 PUSH1 0xA0 SHL SUB AND CALLER EQ PUSH2 0x573 JUMPI PUSH1 0x40 MLOAD PUSH3 0x461BCD PUSH1 0xE5 SHL DUP2 MSTORE PUSH1 0x4 ADD PUSH2 0x56A SWAP1 PUSH2 0x15A3 JUMP JUMPDEST PUSH1 0x40 MLOAD DUP1 SWAP2 SUB SWAP1 REVERT JUMPDEST PUSH3 0x3F480 DUP2 GT ISZERO PUSH2 0x5EC JUMPI PUSH1 0x40 MLOAD PUSH3 0x461BCD PUSH1 0xE5 SHL DUP2 MSTORE PUSH1 0x20 PUSH1 0x4 DUP3 ADD MSTORE PUSH1 0x3D PUSH1 0x24 DUP3 ADD MSTORE PUSH32 0x7769746864726177466565506572696F642063616E6E6F74206265206D6F7265 PUSH1 0x44 DUP3 ADD MSTORE PUSH32 0x207468616E204D41585F57495448445241575F4645455F504552494F44000000 PUSH1 0x64 DUP3 ADD MSTORE PUSH1 0x84 ADD PUSH2 0x56A JUMP JUMPDEST PUSH1 0xC SSTORE JUMP JUMPDEST PUSH1 0x5 SLOAD PUSH1 0x1 PUSH1 0x1 PUSH1 0xA0 SHL SUB AND CALLER EQ PUSH2 0x61B JUMPI PUSH1 0x40 MLOAD PUSH3 0x461BCD PUSH1 0xE5 SHL DUP2 MSTORE PUSH1 0x4 ADD PUSH2 0x56A SWAP1 PUSH2 0x15A3 JUMP JUMPDEST PUSH1 0x64 DUP2 GT ISZERO PUSH2 0x67D JUMPI PUSH1 0x40 MLOAD PUSH3 0x461BCD PUSH1 0xE5 SHL DUP2 MSTORE PUSH1 0x20 PUSH1 0x4 DUP3 ADD MSTORE PUSH1 0x28 PUSH1 0x24 DUP3 ADD MSTORE PUSH32 0x63616C6C4665652063616E6E6F74206265206D6F7265207468616E204D41585F PUSH1 0x44 DUP3 ADD MSTORE PUSH8 0x43414C4C5F464545 PUSH1 0xC0 SHL PUSH1 0x64 DUP3 ADD MSTORE PUSH1 0x84 ADD PUSH2 0x56A JUMP JUMPDEST PUSH1 0xA SSTORE JUMP JUMPDEST CALLER EXTCODESIZE ISZERO PUSH2 0x6A1 JUMPI PUSH1 0x40 MLOAD PUSH3 0x461BCD PUSH1 0xE5 SHL DUP2 MSTORE PUSH1 0x4 ADD PUSH2 0x56A SWAP1 PUSH2 0x15C8 JUMP JUMPDEST CALLER ORIGIN EQ PUSH2 0x6C0 JUMPI PUSH1 0x40 MLOAD PUSH3 0x461BCD PUSH1 0xE5 SHL DUP2 MSTORE PUSH1 0x4 ADD PUSH2 0x56A SWAP1 PUSH2 0x15F6 JUMP JUMPDEST CALLER PUSH1 0x0 SWAP1 DUP2 MSTORE PUSH1 0x2 PUSH1 0x20 MSTORE PUSH1 0x40 SWAP1 KECCAK256 DUP2 PUSH2 0x712 JUMPI PUSH1 0x40 MLOAD PUSH3 0x461BCD PUSH1 0xE5 SHL DUP2 MSTORE PUSH1 0x20 PUSH1 0x4 DUP3 ADD MSTORE PUSH1 0x13 PUSH1 0x24 DUP3 ADD MSTORE PUSH19 0x4E6F7468696E6720746F207769746864726177 PUSH1 0x68 SHL PUSH1 0x44 DUP3 ADD MSTORE PUSH1 0x64 ADD PUSH2 0x56A JUMP JUMPDEST DUP1 SLOAD DUP3 GT ISZERO PUSH2 0x763 JUMPI PUSH1 0x40 MLOAD PUSH3 0x461BCD PUSH1 0xE5 SHL DUP2 MSTORE PUSH1 0x20 PUSH1 0x4 DUP3 ADD MSTORE PUSH1 0x1F PUSH1 0x24 DUP3 ADD MSTORE PUSH32 0x576974686472617720616D6F756E7420657863656564732062616C616E636500 PUSH1 0x44 DUP3 ADD MSTORE PUSH1 0x64 ADD PUSH2 0x56A JUMP JUMPDEST PUSH1 0x0 PUSH2 0x783 PUSH1 0x3 SLOAD PUSH2 0x77D DUP6 PUSH2 0x777 PUSH2 0xA8F JUMP JUMPDEST SWAP1 PUSH2 0x1348 JUMP JUMPDEST SWAP1 PUSH2 0x135B JUMP JUMPDEST DUP3 SLOAD SWAP1 SWAP2 POP PUSH2 0x792 SWAP1 DUP5 PUSH2 0x1367 JUMP JUMPDEST DUP3 SSTORE PUSH1 0x3 SLOAD PUSH2 0x7A1 SWAP1 DUP5 PUSH2 0x1367 JUMP JUMPDEST PUSH1 0x3 SSTORE PUSH1 0x0 PUSH2 0x7AE PUSH2 0xA8F JUMP JUMPDEST SWAP1 POP DUP2 DUP2 LT ISZERO PUSH2 0x7F9 JUMPI PUSH1 0x0 PUSH2 0x7C4 DUP4 DUP4 PUSH2 0x1367 JUMP JUMPDEST SWAP1 POP PUSH1 0x0 PUSH2 0x7D0 PUSH2 0xA8F JUMP JUMPDEST SWAP1 POP PUSH1 0x0 PUSH2 0x7DE DUP3 DUP6 PUSH2 0x1367 JUMP JUMPDEST SWAP1 POP DUP3 DUP2 LT ISZERO PUSH2 0x7F5 JUMPI PUSH2 0x7F2 DUP5 DUP3 PUSH2 0x1373 JUMP JUMPDEST SWAP5 POP JUMPDEST POP POP POP JUMPDEST PUSH1 0xC SLOAD PUSH1 0x1 DUP5 ADD SLOAD PUSH2 0x80A SWAP2 PUSH2 0x1373 JUMP JUMPDEST TIMESTAMP LT ISZERO PUSH2 0x8D6 JUMPI PUSH1 0x0 PUSH2 0x82E PUSH2 0x2710 PUSH2 0x77D PUSH1 0xB SLOAD DUP7 PUSH2 0x1348 SWAP1 SWAP2 SWAP1 PUSH4 0xFFFFFFFF AND JUMP JUMPDEST PUSH1 0x6 SLOAD PUSH1 0x40 MLOAD PUSH4 0xA9059CBB PUSH1 0xE0 SHL DUP2 MSTORE PUSH1 0x1 PUSH1 0x1 PUSH1 0xA0 SHL SUB SWAP2 DUP3 AND PUSH1 0x4 DUP3 ADD MSTORE PUSH1 0x24 DUP2 ADD DUP4 SWAP1 MSTORE SWAP2 SWAP3 POP PUSH32 0x0 AND SWAP1 PUSH4 0xA9059CBB SWAP1 PUSH1 0x44 ADD PUSH1 0x20 PUSH1 0x40 MLOAD DUP1 DUP4 SUB DUP2 PUSH1 0x0 DUP8 GAS CALL ISZERO DUP1 ISZERO PUSH2 0x8A3 JUMPI RETURNDATASIZE PUSH1 0x0 DUP1 RETURNDATACOPY RETURNDATASIZE PUSH1 0x0 REVERT JUMPDEST POP POP POP POP PUSH1 0x40 MLOAD RETURNDATASIZE PUSH1 0x1F NOT PUSH1 0x1F DUP3 ADD AND DUP3 ADD DUP1 PUSH1 0x40 MSTORE POP DUP2 ADD SWAP1 PUSH2 0x8C7 SWAP2 SWAP1 PUSH2 0x162D JUMP JUMPDEST POP PUSH2 0x8D2 DUP4 DUP3 PUSH2 0x1367 JUMP JUMPDEST SWAP3 POP POP JUMPDEST DUP3 SLOAD ISZERO PUSH2 0x900 JUMPI PUSH2 0x8F6 PUSH1 0x3 SLOAD PUSH2 0x77D PUSH2 0x8EE PUSH2 0xA8F JUMP JUMPDEST DUP7 SLOAD SWAP1 PUSH2 0x1348 JUMP JUMPDEST PUSH1 0x2 DUP5 ADD SSTORE PUSH2 0x908 JUMP JUMPDEST PUSH1 0x0 PUSH1 0x2 DUP5 ADD SSTORE JUMPDEST TIMESTAMP PUSH1 0x3 DUP5 ADD SSTORE PUSH1 0x40 MLOAD PUSH4 0xA9059CBB PUSH1 0xE0 SHL DUP2 MSTORE CALLER PUSH1 0x4 DUP3 ADD MSTORE PUSH1 0x24 DUP2 ADD DUP4 SWAP1 MSTORE PUSH32 0x0 PUSH1 0x1 PUSH1 0x1 PUSH1 0xA0 SHL SUB AND SWAP1 PUSH4 0xA9059CBB SWAP1 PUSH1 0x44 ADD PUSH1 0x20 PUSH1 0x40 MLOAD DUP1 DUP4 SUB DUP2 PUSH1 0x0 DUP8 GAS CALL ISZERO DUP1 ISZERO PUSH2 0x97B JUMPI RETURNDATASIZE PUSH1 0x0 DUP1 RETURNDATACOPY RETURNDATASIZE PUSH1 0x0 REVERT JUMPDEST POP POP POP POP PUSH1 0x40 MLOAD RETURNDATASIZE PUSH1 0x1F NOT PUSH1 0x1F DUP3 ADD AND DUP3 ADD DUP1 PUSH1 0x40 MSTORE POP DUP2 ADD SWAP1 PUSH2 0x99F SWAP2 SWAP1 PUSH2 0x162D JUMP JUMPDEST POP PUSH1 0x40 DUP1 MLOAD DUP4 DUP2 MSTORE PUSH1 0x20 DUP2 ADD DUP7 SWAP1 MSTORE CALLER SWAP2 PUSH32 0xF279E6A1F5E320CCA91135676D9CB6E44CA8A08C0B88342BCDB1144F6511B568 SWAP2 ADD JUMPDEST PUSH1 0x40 MLOAD DUP1 SWAP2 SUB SWAP1 LOG2 POP POP POP POP JUMP JUMPDEST PUSH1 0x5 SLOAD PUSH1 0x1 PUSH1 0x1 PUSH1 0xA0 SHL SUB AND CALLER EQ PUSH2 0xA0C JUMPI PUSH1 0x40 MLOAD PUSH3 0x461BCD PUSH1 0xE5 SHL DUP2 MSTORE PUSH1 0x4 ADD PUSH2 0x56A SWAP1 PUSH2 0x15A3 JUMP JUMPDEST PUSH1 0x0 SLOAD PUSH1 0x1 PUSH1 0xA0 SHL SWAP1 DIV PUSH1 0xFF AND PUSH2 0xA5C JUMPI PUSH1 0x40 MLOAD PUSH3 0x461BCD PUSH1 0xE5 SHL DUP2 MSTORE PUSH1 0x20 PUSH1 0x4 DUP3 ADD MSTORE PUSH1 0x14 PUSH1 0x24 DUP3 ADD MSTORE PUSH20 0x14185D5CD8589B194E881B9BDD081C185D5CD959 PUSH1 0x62 SHL PUSH1 0x44 DUP3 ADD MSTORE PUSH1 0x64 ADD PUSH2 0x56A JUMP JUMPDEST PUSH2 0xA64 PUSH2 0x137F JUMP JUMPDEST PUSH1 0x40 MLOAD PUSH32 0x7805862F689E2F13DF9F062FF482AD3AD112ACA9E0847911ED832E158C525B33 SWAP1 PUSH1 0x0 SWAP1 LOG1 JUMP JUMPDEST PUSH1 0x40 MLOAD PUSH4 0x70A08231 PUSH1 0xE0 SHL DUP2 MSTORE ADDRESS PUSH1 0x4 DUP3 ADD MSTORE PUSH1 0x0 SWAP1 PUSH32 0x0 PUSH1 0x1 PUSH1 0x1 PUSH1 0xA0 SHL SUB AND SWAP1 PUSH4 0x70A08231 SWAP1 PUSH1 0x24 ADD PUSH1 0x20 PUSH1 0x40 MLOAD DUP1 DUP4 SUB DUP2 DUP7 GAS STATICCALL ISZERO DUP1 ISZERO PUSH2 0xAF6 JUMPI RETURNDATASIZE PUSH1 0x0 DUP1 RETURNDATACOPY RETURNDATASIZE PUSH1 0x0 REVERT JUMPDEST POP POP POP POP PUSH1 0x40 MLOAD RETURNDATASIZE PUSH1 0x1F NOT PUSH1 0x1F DUP3 ADD AND DUP3 ADD DUP1 PUSH1 0x40 MSTORE POP DUP2 ADD SWAP1 PUSH2 0xB1A SWAP2 SWAP1 PUSH2 0x164F JUMP JUMPDEST SWAP1 POP SWAP1 JUMP JUMPDEST PUSH1 0x0 SLOAD PUSH1 0x1 PUSH1 0x1 PUSH1 0xA0 SHL SUB AND CALLER EQ PUSH2 0xB49 JUMPI PUSH1 0x40 MLOAD PUSH3 0x461BCD PUSH1 0xE5 SHL DUP2 MSTORE PUSH1 0x4 ADD PUSH2 0x56A SWAP1 PUSH2 0x1668 JUMP JUMPDEST PUSH1 0x1 PUSH1 0x1 PUSH1 0xA0 SHL SUB DUP2 AND PUSH2 0xB98 JUMPI PUSH1 0x40 MLOAD PUSH3 0x461BCD PUSH1 0xE5 SHL DUP2 MSTORE PUSH1 0x20 PUSH1 0x4 DUP3 ADD MSTORE PUSH1 0x16 PUSH1 0x24 DUP3 ADD MSTORE PUSH22 0x43616E6E6F74206265207A65726F2061646472657373 PUSH1 0x50 SHL PUSH1 0x44 DUP3 ADD MSTORE PUSH1 0x64 ADD PUSH2 0x56A JUMP JUMPDEST PUSH1 0x5 DUP1 SLOAD PUSH1 0x1 PUSH1 0x1 PUSH1 0xA0 SHL SUB NOT AND PUSH1 0x1 PUSH1 0x1 PUSH1 0xA0 SHL SUB SWAP3 SWAP1 SWAP3 AND SWAP2 SWAP1 SWAP2 OR SWAP1 SSTORE JUMP JUMPDEST PUSH1 0x5 SLOAD PUSH1 0x1 PUSH1 0x1 PUSH1 0xA0 SHL SUB AND CALLER EQ PUSH2 0xBE4 JUMPI PUSH1 0x40 MLOAD PUSH3 0x461BCD PUSH1 0xE5 SHL DUP2 MSTORE PUSH1 0x4 ADD PUSH2 0x56A SWAP1 PUSH2 0x15A3 JUMP JUMPDEST PUSH2 0x1F4 DUP2 GT ISZERO PUSH2 0xC55 JUMPI PUSH1 0x40 MLOAD PUSH3 0x461BCD PUSH1 0xE5 SHL DUP2 MSTORE PUSH1 0x20 PUSH1 0x4 DUP3 ADD MSTORE PUSH1 0x36 PUSH1 0x24 DUP3 ADD MSTORE PUSH32 0x706572666F726D616E63654665652063616E6E6F74206265206D6F7265207468 PUSH1 0x44 DUP3 ADD MSTORE PUSH22 0x616E204D41585F504552464F524D414E43455F464545 PUSH1 0x50 SHL PUSH1 0x64 DUP3 ADD MSTORE PUSH1 0x84 ADD PUSH2 0x56A JUMP JUMPDEST PUSH1 0x9 SSTORE JUMP JUMPDEST PUSH1 0x0 SLOAD PUSH1 0x1 PUSH1 0x1 PUSH1 0xA0 SHL SUB AND CALLER EQ PUSH2 0xC84 JUMPI PUSH1 0x40 MLOAD PUSH3 0x461BCD PUSH1 0xE5 SHL DUP2 MSTORE PUSH1 0x4 ADD PUSH2 0x56A SWAP1 PUSH2 0x1668 JUMP JUMPDEST PUSH2 0xC8E PUSH1 0x0 PUSH2 0x141C JUMP JUMPDEST JUMP JUMPDEST PUSH1 0x0 PUSH1 0x3 SLOAD PUSH1 0x0 EQ PUSH2 0xCB6 JUMPI PUSH2 0xB1A PUSH1 0x3 SLOAD PUSH2 0x77D PUSH8 0xDE0B6B3A7640000 PUSH2 0x777 PUSH2 0xA8F JUMP JUMPDEST POP PUSH8 0xDE0B6B3A7640000 SWAP1 JUMP JUMPDEST PUSH1 0x5 SLOAD PUSH1 0x1 PUSH1 0x1 PUSH1 0xA0 SHL SUB AND CALLER EQ PUSH2 0xCED JUMPI PUSH1 0x40 MLOAD PUSH3 0x461BCD PUSH1 0xE5 SHL DUP2 MSTORE PUSH1 0x4 ADD PUSH2 0x56A SWAP1 PUSH2 0x15A3 JUMP JUMPDEST PUSH1 0x0 SLOAD PUSH1 0x1 PUSH1 0xA0 SHL SWAP1 DIV PUSH1 0xFF AND ISZERO PUSH2 0xD17 JUMPI PUSH1 0x40 MLOAD PUSH3 0x461BCD PUSH1 0xE5 SHL DUP2 MSTORE PUSH1 0x4 ADD PUSH2 0x56A SWAP1 PUSH2 0x169D JUMP JUMPDEST PUSH2 0xD1F PUSH2 0x146C JUMP JUMPDEST PUSH1 0x40 MLOAD PUSH32 0x6985A02210A168E66602D3235CB6DB0E70F92B3BA4D376A33C0F3D9434BFF625 SWAP1 PUSH1 0x0 SWAP1 LOG1 JUMP JUMPDEST CALLER EXTCODESIZE ISZERO PUSH2 0xD69 JUMPI PUSH1 0x40 MLOAD PUSH3 0x461BCD PUSH1 0xE5 SHL DUP2 MSTORE PUSH1 0x4 ADD PUSH2 0x56A SWAP1 PUSH2 0x15C8 JUMP JUMPDEST CALLER ORIGIN EQ PUSH2 0xD88 JUMPI PUSH1 0x40 MLOAD PUSH3 0x461BCD PUSH1 0xE5 SHL DUP2 MSTORE PUSH1 0x4 ADD PUSH2 0x56A SWAP1 PUSH2 0x15F6 JUMP JUMPDEST CALLER PUSH1 0x0 SWAP1 DUP2 MSTORE PUSH1 0x2 PUSH1 0x20 MSTORE PUSH1 0x40 SWAP1 KECCAK256 SLOAD PUSH2 0xC8E SWAP1 PUSH2 0x682 JUMP JUMPDEST PUSH1 0x1 DUP2 DUP2 SLOAD DUP2 LT PUSH2 0xDB1 JUMPI PUSH1 0x0 DUP1 REVERT JUMPDEST PUSH1 0x0 SWAP2 DUP3 MSTORE PUSH1 0x20 SWAP1 SWAP2 KECCAK256 ADD SLOAD PUSH1 0x1 PUSH1 0x1 PUSH1 0xA0 SHL SUB AND SWAP1 POP DUP2 JUMP JUMPDEST PUSH1 0x5 SLOAD PUSH1 0x1 PUSH1 0x1 PUSH1 0xA0 SHL SUB AND CALLER EQ PUSH2 0xDF5 JUMPI PUSH1 0x40 MLOAD PUSH3 0x461BCD PUSH1 0xE5 SHL DUP2 MSTORE PUSH1 0x4 ADD PUSH2 0x56A SWAP1 PUSH2 0x15A3 JUMP JUMPDEST PUSH1 0x64 DUP2 GT ISZERO PUSH2 0xE5F JUMPI PUSH1 0x40 MLOAD PUSH3 0x461BCD PUSH1 0xE5 SHL DUP2 MSTORE PUSH1 0x20 PUSH1 0x4 DUP3 ADD MSTORE PUSH1 0x30 PUSH1 0x24 DUP3 ADD MSTORE PUSH32 0x77697468647261774665652063616E6E6F74206265206D6F7265207468616E20 PUSH1 0x44 DUP3 ADD MSTORE PUSH16 0x4D41585F57495448445241575F464545 PUSH1 0x80 SHL PUSH1 0x64 DUP3 ADD MSTORE PUSH1 0x84 ADD PUSH2 0x56A JUMP JUMPDEST PUSH1 0xB SSTORE JUMP JUMPDEST PUSH1 0x0 SLOAD PUSH1 0x1 PUSH1 0xA0 SHL SWAP1 DIV PUSH1 0xFF AND ISZERO PUSH2 0xE8E JUMPI PUSH1 0x40 MLOAD PUSH3 0x461BCD PUSH1 0xE5 SHL DUP2 MSTORE PUSH1 0x4 ADD PUSH2 0x56A SWAP1 PUSH2 0x169D JUMP JUMPDEST CALLER EXTCODESIZE ISZERO PUSH2 0xEAD JUMPI PUSH1 0x40 MLOAD PUSH3 0x461BCD PUSH1 0xE5 SHL DUP2 MSTORE PUSH1 0x4 ADD PUSH2 0x56A SWAP1 PUSH2 0x15C8 JUMP JUMPDEST CALLER ORIGIN EQ PUSH2 0xECC JUMPI PUSH1 0x40 MLOAD PUSH3 0x461BCD PUSH1 0xE5 SHL DUP2 MSTORE PUSH1 0x4 ADD PUSH2 0x56A SWAP1 PUSH2 0x15F6 JUMP JUMPDEST PUSH1 0x0 DUP2 GT PUSH2 0xF11 JUMPI PUSH1 0x40 MLOAD PUSH3 0x461BCD PUSH1 0xE5 SHL DUP2 MSTORE PUSH1 0x20 PUSH1 0x4 DUP3 ADD MSTORE PUSH1 0x12 PUSH1 0x24 DUP3 ADD MSTORE PUSH18 0x139BDD1A1A5B99C81D1BC819195C1BDCDA5D PUSH1 0x72 SHL PUSH1 0x44 DUP3 ADD MSTORE PUSH1 0x64 ADD PUSH2 0x56A JUMP JUMPDEST PUSH1 0x0 PUSH2 0xF1B PUSH2 0xA8F JUMP JUMPDEST PUSH1 0x40 MLOAD PUSH4 0x23B872DD PUSH1 0xE0 SHL DUP2 MSTORE CALLER PUSH1 0x4 DUP3 ADD MSTORE ADDRESS PUSH1 0x24 DUP3 ADD MSTORE PUSH1 0x44 DUP2 ADD DUP5 SWAP1 MSTORE SWAP1 SWAP2 POP PUSH32 0x0 PUSH1 0x1 PUSH1 0x1 PUSH1 0xA0 SHL SUB AND SWAP1 PUSH4 0x23B872DD SWAP1 PUSH1 0x64 ADD PUSH1 0x20 PUSH1 0x40 MLOAD DUP1 DUP4 SUB DUP2 PUSH1 0x0 DUP8 GAS CALL ISZERO DUP1 ISZERO PUSH2 0xF91 JUMPI RETURNDATASIZE PUSH1 0x0 DUP1 RETURNDATACOPY RETURNDATASIZE PUSH1 0x0 REVERT JUMPDEST POP POP POP POP PUSH1 0x40 MLOAD RETURNDATASIZE PUSH1 0x1F NOT PUSH1 0x1F DUP3 ADD AND DUP3 ADD DUP1 PUSH1 0x40 MSTORE POP DUP2 ADD SWAP1 PUSH2 0xFB5 SWAP2 SWAP1 PUSH2 0x162D JUMP JUMPDEST POP PUSH1 0x0 PUSH1 0x3 SLOAD PUSH1 0x0 EQ PUSH2 0xFE2 JUMPI PUSH2 0xFDB DUP3 PUSH2 0x77D PUSH1 0x3 SLOAD DUP7 PUSH2 0x1348 SWAP1 SWAP2 SWAP1 PUSH4 0xFFFFFFFF AND JUMP JUMPDEST SWAP1 POP PUSH2 0xFE5 JUMP JUMPDEST POP DUP2 JUMPDEST CALLER PUSH1 0x0 SWAP1 DUP2 MSTORE PUSH1 0x2 PUSH1 0x20 MSTORE PUSH1 0x40 SWAP1 KECCAK256 DUP1 SLOAD PUSH2 0x1000 SWAP1 DUP4 PUSH2 0x1373 JUMP JUMPDEST DUP2 SSTORE TIMESTAMP PUSH1 0x1 DUP3 ADD SSTORE PUSH1 0x3 SLOAD PUSH2 0x1015 SWAP1 DUP4 PUSH2 0x1373 JUMP JUMPDEST PUSH1 0x3 DUP2 SWAP1 SSTORE PUSH2 0x1031 SWAP1 PUSH2 0x77D PUSH2 0x1029 PUSH2 0xA8F JUMP JUMPDEST DUP5 SLOAD SWAP1 PUSH2 0x1348 JUMP JUMPDEST PUSH1 0x2 DUP3 ADD SSTORE TIMESTAMP PUSH1 0x3 DUP3 ADD DUP2 SWAP1 SSTORE PUSH1 0x40 DUP1 MLOAD DUP7 DUP2 MSTORE PUSH1 0x20 DUP2 ADD DUP6 SWAP1 MSTORE SWAP1 DUP2 ADD SWAP2 SWAP1 SWAP2 MSTORE CALLER SWAP1 PUSH32 0x36AF321EC8D3C75236829C5317AFFD40DDB308863A1236D2D277A4025CCCEE1E SWAP1 PUSH1 0x60 ADD PUSH2 0x9D4 JUMP JUMPDEST PUSH1 0x5 SLOAD PUSH1 0x1 PUSH1 0x1 PUSH1 0xA0 SHL SUB AND CALLER EQ PUSH2 0x10A9 JUMPI PUSH1 0x40 MLOAD PUSH3 0x461BCD PUSH1 0xE5 SHL DUP2 MSTORE PUSH1 0x4 ADD PUSH2 0x56A SWAP1 PUSH2 0x15A3 JUMP JUMPDEST PUSH32 0x0 PUSH1 0x1 PUSH1 0x1 PUSH1 0xA0 SHL SUB AND DUP2 PUSH1 0x1 PUSH1 0x1 PUSH1 0xA0 SHL SUB AND EQ ISZERO PUSH2 0x1139 JUMPI PUSH1 0x40 MLOAD PUSH3 0x461BCD PUSH1 0xE5 SHL DUP2 MSTORE PUSH1 0x20 PUSH1 0x4 DUP3 ADD MSTORE PUSH1 0x25 PUSH1 0x24 DUP3 ADD MSTORE PUSH32 0x546F6B656E2063616E6E6F742062652073616D65206173206465706F73697420 PUSH1 0x44 DUP3 ADD MSTORE PUSH5 0x3A37B5B2B7 PUSH1 0xD9 SHL PUSH1 0x64 DUP3 ADD MSTORE PUSH1 0x84 ADD PUSH2 0x56A JUMP JUMPDEST PUSH32 0x0 PUSH1 0x1 PUSH1 0x1 PUSH1 0xA0 SHL SUB AND DUP2 PUSH1 0x1 PUSH1 0x1 PUSH1 0xA0 SHL SUB AND EQ ISZERO PUSH2 0x11C9 JUMPI PUSH1 0x40 MLOAD PUSH3 0x461BCD PUSH1 0xE5 SHL DUP2 MSTORE PUSH1 0x20 PUSH1 0x4 DUP3 ADD MSTORE PUSH1 0x25 PUSH1 0x24 DUP3 ADD MSTORE PUSH32 0x546F6B656E2063616E6E6F742062652073616D65206173207265636569707420 PUSH1 0x44 DUP3 ADD MSTORE PUSH5 0x3A37B5B2B7 PUSH1 0xD9 SHL PUSH1 0x64 DUP3 ADD MSTORE PUSH1 0x84 ADD PUSH2 0x56A JUMP JUMPDEST PUSH1 0x40 MLOAD PUSH4 0x70A08231 PUSH1 0xE0 SHL DUP2 MSTORE ADDRESS PUSH1 0x4 DUP3 ADD MSTORE PUSH1 0x0 SWAP1 PUSH1 0x1 PUSH1 0x1 PUSH1 0xA0 SHL SUB DUP4 AND SWAP1 PUSH4 0x70A08231 SWAP1 PUSH1 0x24 ADD PUSH1 0x20 PUSH1 0x40 MLOAD DUP1 DUP4 SUB DUP2 DUP7 GAS STATICCALL ISZERO DUP1 ISZERO PUSH2 0x1210 JUMPI RETURNDATASIZE PUSH1 0x0 DUP1 RETURNDATACOPY RETURNDATASIZE PUSH1 0x0 REVERT JUMPDEST POP POP POP POP PUSH1 0x40 MLOAD RETURNDATASIZE PUSH1 0x1F NOT PUSH1 0x1F DUP3 ADD AND DUP3 ADD DUP1 PUSH1 0x40 MSTORE POP DUP2 ADD SWAP1 PUSH2 0x1234 SWAP2 SWAP1 PUSH2 0x164F JUMP JUMPDEST PUSH1 0x40 MLOAD PUSH4 0xA9059CBB PUSH1 0xE0 SHL DUP2 MSTORE CALLER PUSH1 0x4 DUP3 ADD MSTORE PUSH1 0x24 DUP2 ADD DUP3 SWAP1 MSTORE SWAP1 SWAP2 POP PUSH1 0x1 PUSH1 0x1 PUSH1 0xA0 SHL SUB DUP4 AND SWAP1 PUSH4 0xA9059CBB SWAP1 PUSH1 0x44 ADD PUSH1 0x20 PUSH1 0x40 MLOAD DUP1 DUP4 SUB DUP2 PUSH1 0x0 DUP8 GAS CALL ISZERO DUP1 ISZERO PUSH2 0x1284 JUMPI RETURNDATASIZE PUSH1 0x0 DUP1 RETURNDATACOPY RETURNDATASIZE PUSH1 0x0 REVERT JUMPDEST POP POP POP POP PUSH1 0x40 MLOAD RETURNDATASIZE PUSH1 0x1F NOT PUSH1 0x1F DUP3 ADD AND DUP3 ADD DUP1 PUSH1 0x40 MSTORE POP DUP2 ADD SWAP1 PUSH2 0x12A8 SWAP2 SWAP1 PUSH2 0x162D JUMP JUMPDEST POP POP POP JUMP JUMPDEST PUSH1 0x0 SLOAD PUSH1 0x1 PUSH1 0x1 PUSH1 0xA0 SHL SUB AND CALLER EQ PUSH2 0x12D7 JUMPI PUSH1 0x40 MLOAD PUSH3 0x461BCD PUSH1 0xE5 SHL DUP2 MSTORE PUSH1 0x4 ADD PUSH2 0x56A SWAP1 PUSH2 0x1668 JUMP JUMPDEST PUSH1 0x1 PUSH1 0x1 PUSH1 0xA0 SHL SUB DUP2 AND PUSH2 0x133C JUMPI PUSH1 0x40 MLOAD PUSH3 0x461BCD PUSH1 0xE5 SHL DUP2 MSTORE PUSH1 0x20 PUSH1 0x4 DUP3 ADD MSTORE PUSH1 0x26 PUSH1 0x24 DUP3 ADD MSTORE PUSH32 0x4F776E61626C653A206E6577206F776E657220697320746865207A65726F2061 PUSH1 0x44 DUP3 ADD MSTORE PUSH6 0x646472657373 PUSH1 0xD0 SHL PUSH1 0x64 DUP3 ADD MSTORE PUSH1 0x84 ADD PUSH2 0x56A JUMP JUMPDEST PUSH2 0x1345 DUP2 PUSH2 0x141C JUMP JUMPDEST POP JUMP JUMPDEST PUSH1 0x0 PUSH2 0x1354 DUP3 DUP5 PUSH2 0x16DD JUMP JUMPDEST SWAP4 SWAP3 POP POP POP JUMP JUMPDEST PUSH1 0x0 PUSH2 0x1354 DUP3 DUP5 PUSH2 0x16FC JUMP JUMPDEST PUSH1 0x0 PUSH2 0x1354 DUP3 DUP5 PUSH2 0x171E JUMP JUMPDEST PUSH1 0x0 PUSH2 0x1354 DUP3 DUP5 PUSH2 0x1735 JUMP JUMPDEST PUSH1 0x0 SLOAD PUSH1 0x1 PUSH1 0xA0 SHL SWAP1 DIV PUSH1 0xFF AND PUSH2 0x13CF JUMPI PUSH1 0x40 MLOAD PUSH3 0x461BCD PUSH1 0xE5 SHL DUP2 MSTORE PUSH1 0x20 PUSH1 0x4 DUP3 ADD MSTORE PUSH1 0x14 PUSH1 0x24 DUP3 ADD MSTORE PUSH20 0x14185D5CD8589B194E881B9BDD081C185D5CD959 PUSH1 0x62 SHL PUSH1 0x44 DUP3 ADD MSTORE PUSH1 0x64 ADD PUSH2 0x56A JUMP JUMPDEST PUSH1 0x0 DUP1 SLOAD PUSH1 0xFF PUSH1 0xA0 SHL NOT AND SWAP1 SSTORE PUSH32 0x5DB9EE0A495BF2E6FF9C91A7834C1BA4FDD244A5E8AA4E537BD38AEAE4B073AA CALLER JUMPDEST PUSH1 0x40 MLOAD PUSH1 0x1 PUSH1 0x1 PUSH1 0xA0 SHL SUB SWAP1 SWAP2 AND DUP2 MSTORE PUSH1 0x20 ADD PUSH1 0x40 MLOAD DUP1 SWAP2 SUB SWAP1 LOG1 JUMP JUMPDEST PUSH1 0x0 DUP1 SLOAD PUSH1 0x1 PUSH1 0x1 PUSH1 0xA0 SHL SUB DUP4 DUP2 AND PUSH1 0x1 PUSH1 0x1 PUSH1 0xA0 SHL SUB NOT DUP4 AND DUP2 OR DUP5 SSTORE PUSH1 0x40 MLOAD SWAP2 SWAP1 SWAP3 AND SWAP3 DUP4 SWAP2 PUSH32 0x8BE0079C531659141344CD1FD0A4F28419497F9722A3DAAFE3B4186F6B6457E0 SWAP2 SWAP1 LOG3 POP POP JUMP JUMPDEST PUSH1 0x0 SLOAD PUSH1 0x1 PUSH1 0xA0 SHL SWAP1 DIV PUSH1 0xFF AND ISZERO PUSH2 0x1496 JUMPI PUSH1 0x40 MLOAD PUSH3 0x461BCD PUSH1 0xE5 SHL DUP2 MSTORE PUSH1 0x4 ADD PUSH2 0x56A SWAP1 PUSH2 0x169D JUMP JUMPDEST PUSH1 0x0 DUP1 SLOAD PUSH1 0xFF PUSH1 0xA0 SHL NOT AND PUSH1 0x1 PUSH1 0xA0 SHL OR SWAP1 SSTORE PUSH32 0x62E78CEA01BEE320CD4E420270B5EA74000D11B0C9F74754EBDBFC544B05A258 PUSH2 0x13FF CALLER SWAP1 JUMP JUMPDEST PUSH1 0x0 PUSH1 0x20 DUP1 DUP4 MSTORE DUP4 MLOAD DUP1 DUP3 DUP6 ADD MSTORE PUSH1 0x0 JUMPDEST DUP2 DUP2 LT ISZERO PUSH2 0x14FE JUMPI DUP6 DUP2 ADD DUP4 ADD MLOAD DUP6 DUP3 ADD PUSH1 0x40 ADD MSTORE DUP3 ADD PUSH2 0x14E2 JUMP JUMPDEST DUP2 DUP2 GT ISZERO PUSH2 0x1510 JUMPI PUSH1 0x0 PUSH1 0x40 DUP4 DUP8 ADD ADD MSTORE JUMPDEST POP PUSH1 0x1F ADD PUSH1 0x1F NOT AND SWAP3 SWAP1 SWAP3 ADD PUSH1 0x40 ADD SWAP4 SWAP3 POP POP POP JUMP JUMPDEST PUSH1 0x0 PUSH1 0x20 DUP3 DUP5 SUB SLT ISZERO PUSH2 0x1538 JUMPI PUSH1 0x0 DUP1 REVERT JUMPDEST DUP2 CALLDATALOAD PUSH1 0x1 PUSH1 0x1 PUSH1 0xA0 SHL SUB DUP2 AND DUP2 EQ PUSH2 0x1354 JUMPI PUSH1 0x0 DUP1 REVERT JUMPDEST PUSH1 0x0 PUSH1 0x20 DUP3 DUP5 SUB SLT ISZERO PUSH2 0x1561 JUMPI PUSH1 0x0 DUP1 REVERT JUMPDEST POP CALLDATALOAD SWAP2 SWAP1 POP JUMP JUMPDEST PUSH1 0x1 DUP2 DUP2 SHR SWAP1 DUP3 AND DUP1 PUSH2 0x157C JUMPI PUSH1 0x7F DUP3 AND SWAP2 POP JUMPDEST PUSH1 0x20 DUP3 LT DUP2 EQ ISZERO PUSH2 0x159D JUMPI PUSH4 0x4E487B71 PUSH1 0xE0 SHL PUSH1 0x0 MSTORE PUSH1 0x22 PUSH1 0x4 MSTORE PUSH1 0x24 PUSH1 0x0 REVERT JUMPDEST POP SWAP2 SWAP1 POP JUMP JUMPDEST PUSH1 0x20 DUP1 DUP3 MSTORE PUSH1 0xB SWAP1 DUP3 ADD MSTORE PUSH11 0x61646D696E3A207775743F PUSH1 0xA8 SHL PUSH1 0x40 DUP3 ADD MSTORE PUSH1 0x60 ADD SWAP1 JUMP JUMPDEST PUSH1 0x20 DUP1 DUP3 MSTORE PUSH1 0x14 SWAP1 DUP3 ADD MSTORE PUSH20 0x18DBDB9D1C9858DD081B9BDD08185B1B1BDDD959 PUSH1 0x62 SHL PUSH1 0x40 DUP3 ADD MSTORE PUSH1 0x60 ADD SWAP1 JUMP JUMPDEST PUSH1 0x20 DUP1 DUP3 MSTORE PUSH1 0x1A SWAP1 DUP3 ADD MSTORE PUSH32 0x70726F787920636F6E7472616374206E6F7420616C6C6F776564000000000000 PUSH1 0x40 DUP3 ADD MSTORE PUSH1 0x60 ADD SWAP1 JUMP JUMPDEST PUSH1 0x0 PUSH1 0x20 DUP3 DUP5 SUB SLT ISZERO PUSH2 0x163F JUMPI PUSH1 0x0 DUP1 REVERT JUMPDEST DUP2 MLOAD DUP1 ISZERO ISZERO DUP2 EQ PUSH2 0x1354 JUMPI PUSH1 0x0 DUP1 REVERT JUMPDEST PUSH1 0x0 PUSH1 0x20 DUP3 DUP5 SUB SLT ISZERO PUSH2 0x1661 JUMPI PUSH1 0x0 DUP1 REVERT JUMPDEST POP MLOAD SWAP2 SWAP1 POP JUMP JUMPDEST PUSH1 0x20 DUP1 DUP3 MSTORE DUP2 DUP2 ADD MSTORE PUSH32 0x4F776E61626C653A2063616C6C6572206973206E6F7420746865206F776E6572 PUSH1 0x40 DUP3 ADD MSTORE PUSH1 0x60 ADD SWAP1 JUMP JUMPDEST PUSH1 0x20 DUP1 DUP3 MSTORE PUSH1 0x10 SWAP1 DUP3 ADD MSTORE PUSH16 0x14185D5CD8589B194E881C185D5CD959 PUSH1 0x82 SHL PUSH1 0x40 DUP3 ADD MSTORE PUSH1 0x60 ADD SWAP1 JUMP JUMPDEST PUSH4 0x4E487B71 PUSH1 0xE0 SHL PUSH1 0x0 MSTORE PUSH1 0x11 PUSH1 0x4 MSTORE PUSH1 0x24 PUSH1 0x0 REVERT JUMPDEST PUSH1 0x0 DUP2 PUSH1 0x0 NOT DIV DUP4 GT DUP3 ISZERO ISZERO AND ISZERO PUSH2 0x16F7 JUMPI PUSH2 0x16F7 PUSH2 0x16C7 JUMP JUMPDEST POP MUL SWAP1 JUMP JUMPDEST PUSH1 0x0 DUP3 PUSH2 0x1719 JUMPI PUSH4 0x4E487B71 PUSH1 0xE0 SHL PUSH1 0x0 MSTORE PUSH1 0x12 PUSH1 0x4 MSTORE PUSH1 0x24 PUSH1 0x0 REVERT JUMPDEST POP DIV SWAP1 JUMP JUMPDEST PUSH1 0x0 DUP3 DUP3 LT ISZERO PUSH2 0x1730 JUMPI PUSH2 0x1730 PUSH2 0x16C7 JUMP JUMPDEST POP SUB SWAP1 JUMP JUMPDEST PUSH1 0x0 DUP3 NOT DUP3 GT ISZERO PUSH2 0x1748 JUMPI PUSH2 0x1748 PUSH2 0x16C7 JUMP JUMPDEST POP ADD SWAP1 JUMP INVALID LOG2 PUSH5 0x6970667358 0x22 SLT KECCAK256 SWAP10 PUSH29 0xC5E8FEB9B647DE31D5C42F8832541590C50CC2C30F9858C58A102D3F65 POP PUSH5 0x736F6C6343 STOP ADDMOD EXP STOP CALLER LOG2 PUSH5 0x6970667358 0x22 SLT KECCAK256 0xB3 PUSH20 0x6AF403D0034D704581406C965750C762FC259E7B 0xE8 INVALID 0xA5 0xDA GASPRICE 0xCC PC KECCAK256 SWAP12 RETURNDATASIZE PUSH5 0x736F6C6343 STOP ADDMOD EXP STOP CALLER "
		},
		"gasEstimates": {
			"creation": {
				"codeDepositCost": "2692400",
				"executionCost": "101456",
				"totalCost": "2793856"
			},
			"external": {
				"createFund(string,address[])": "infinite",
				"fundToOwner(uint256)": "2489",
				"getFund(uint256)": "4675",
				"getFundsFromOwner(address)": "infinite",
				"owner()": "2364",
				"ownerToFund(address,uint256)": "4839",
				"paused()": "2309",
				"renounceOwnership()": "28136",
				"transferOwnership(address)": "28397"
			},
			"internal": {
				"_createFund(address,string memory,address[] calldata)": "infinite"
			}
		},
		"methodIdentifiers": {
			"createFund(string,address[])": "05389d67",
			"fundToOwner(uint256)": "31636cd3",
			"getFund(uint256)": "52c8df64",
			"getFundsFromOwner(address)": "526acc63",
			"owner()": "8da5cb5b",
			"ownerToFund(address,uint256)": "b8a6e1e4",
			"paused()": "5c975abb",
			"renounceOwnership()": "715018a6",
			"transferOwnership(address)": "f2fde38b"
		}
	},
	"abi": [
		{
			"anonymous": false,
			"inputs": [
				{
					"indexed": false,
					"internalType": "uint256",
					"name": "fundId",
					"type": "uint256"
				},
				{
					"indexed": false,
					"internalType": "string",
					"name": "name",
					"type": "string"
				}
			],
			"name": "NewFund",
			"type": "event"
		},
		{
			"anonymous": false,
			"inputs": [
				{
					"indexed": true,
					"internalType": "address",
					"name": "previousOwner",
					"type": "address"
				},
				{
					"indexed": true,
					"internalType": "address",
					"name": "newOwner",
					"type": "address"
				}
			],
			"name": "OwnershipTransferred",
			"type": "event"
		},
		{
			"anonymous": false,
			"inputs": [
				{
					"indexed": false,
					"internalType": "address",
					"name": "account",
					"type": "address"
				}
			],
			"name": "Paused",
			"type": "event"
		},
		{
			"anonymous": false,
			"inputs": [
				{
					"indexed": false,
					"internalType": "address",
					"name": "account",
					"type": "address"
				}
			],
			"name": "Unpaused",
			"type": "event"
		},
		{
			"inputs": [
				{
					"internalType": "string",
					"name": "_name",
					"type": "string"
				},
				{
					"internalType": "address[]",
					"name": "_authorisedTokens",
					"type": "address[]"
				}
			],
			"name": "createFund",
			"outputs": [],
			"stateMutability": "nonpayable",
			"type": "function"
		},
		{
			"inputs": [
				{
					"internalType": "uint256",
					"name": "",
					"type": "uint256"
				}
			],
			"name": "fundToOwner",
			"outputs": [
				{
					"internalType": "address",
					"name": "",
					"type": "address"
				}
			],
			"stateMutability": "view",
			"type": "function"
		},
		{
			"inputs": [
				{
					"internalType": "uint256",
					"name": "fundId",
					"type": "uint256"
				}
			],
			"name": "getFund",
			"outputs": [
				{
					"internalType": "contract Fund",
					"name": "fund",
					"type": "address"
				}
			],
			"stateMutability": "view",
			"type": "function"
		},
		{
			"inputs": [
				{
					"internalType": "address",
					"name": "_owner",
					"type": "address"
				}
			],
			"name": "getFundsFromOwner",
			"outputs": [
				{
					"internalType": "contract Fund[]",
					"name": "funds",
					"type": "address[]"
				}
			],
			"stateMutability": "view",
			"type": "function"
		},
		{
			"inputs": [],
			"name": "owner",
			"outputs": [
				{
					"internalType": "address",
					"name": "",
					"type": "address"
				}
			],
			"stateMutability": "view",
			"type": "function"
		},
		{
			"inputs": [
				{
					"internalType": "address",
					"name": "",
					"type": "address"
				},
				{
					"internalType": "uint256",
					"name": "",
					"type": "uint256"
				}
			],
			"name": "ownerToFund",
			"outputs": [
				{
					"internalType": "contract Fund",
					"name": "",
					"type": "address"
				}
			],
			"stateMutability": "view",
			"type": "function"
		},
		{
			"inputs": [],
			"name": "paused",
			"outputs": [
				{
					"internalType": "bool",
					"name": "",
					"type": "bool"
				}
			],
			"stateMutability": "view",
			"type": "function"
		},
		{
			"inputs": [],
			"name": "renounceOwnership",
			"outputs": [],
			"stateMutability": "nonpayable",
			"type": "function"
		},
		{
			"inputs": [
				{
					"internalType": "address",
					"name": "newOwner",
					"type": "address"
				}
			],
			"name": "transferOwnership",
			"outputs": [],
			"stateMutability": "nonpayable",
			"type": "function"
		}
	]
}